:020000040800F2
:10000000000001208D310008C12F0008C72F000813
:10001000CD2F0008D32F0008D92F000800000000C2
:10002000000000000000000000000000DF2F0008BA
:10003000EB2F000800000000F72F00080330000835
:10004000D5310008D5310008D5310008D531000878
:10005000D5310008D5310008D5310008D531000868
:10006000D5310008D5310008D5310008D531000858
:10007000D5310008D5310008D5310008D531000848
:10008000D5310008D5310008D5310008D531000838
:10009000D5310008D5310008D5310008D531000828
:1000A000D5310008D5310008D5310008D531000818
:1000B000D5310008D5310008D5310008D531000808
:1000C000D5310008D5310008D5310008D5310008F8
:1000D000D5310008D5310008D5310008D5310008E8
:1000E000D5310008D5310008D5310008D5310008D8
:1000F000D5310008D5310008D5310008113000088D
:10010000D5310008D5310008D5310008D5310008B7
:10011000D5310008D5310008D5310008D5310008A7
:10012000D5310008D5310008D53100082530000848
:1001300000000000000000000000000000000000BF
:1001400000000000000000000000000000000000AF
:10015000000000000000000000000000000000009F
:10016000000000000000000000000000000000008F
:10017000000000000000000000000000000000007F
:10018000000000000000000000000000000000006F
:10019000000000000000000000000000000000005F
:1001A000000000000000000000000000000000004F
:1001B000000000000000000000000000000000003F
:1001C000000000000000000000000000000000002F
:1001D000000000000000000000000000000000001F
:0401E0005FF8E0F1F3
:1001E80010B5054C237833B9044B13B10448AFF369
:1001F80000800123237010BDEC01002000000000E6
:10020800409D000808B5034B1BB103490348AFF3F1
:10021800008008BD00000000F0010020409D00089B
:10022800034613F8012B002AFBD1181A013870472E
:1002380081F0004102E000BF83F0004330B54FEA8F
:1002480041044FEA430594EA050F08BF90EA020FFC
:100258001FBF54EA000C55EA020C7FEA645C7FEA8F
:10026800655C00F0E2804FEA5454D4EB5555B8BFB2
:100278006D420CDD2C4480EA020281EA030382EA23
:10028800000083EA010180EA020281EA0303362DB5
:1002980088BF30BD11F0004F4FEA01314FF4801C88
:1002A8004CEA113102D0404261EB410113F0004F9A
:1002B8004FEA03334CEA133302D0524263EB430351
:1002C80094EA050F00F0A780A4F10104D5F1200EEF
:1002D8000DDB02FA0EFC22FA05F2801841F100014A
:1002E80003FA0EF2801843FA05F359410EE0A5F11E
:1002F80020050EF1200E012A03FA0EFC28BF4CF04F
:10030800020C43FA05F3C01851EBE37101F0004504
:1003180007D54FF0000EDCF1000C7EEB00006EEB11
:100328000101B1F5801F1BD3B1F5001F0CD349089B
:100338005FEA30004FEA3C0C04F101044FEA4452F2
:1003480012F5800F80F09A80BCF1004F08BF5FEA79
:10035800500C50F1000041EB045141EA050130BD59
:100368005FEA4C0C404141EB0101013C28BFB1F56B
:10037800801FE9D291F0000F04BF01460020B1FAB6
:1003880081F308BF2033A3F10B03B3F120020CDA89
:100398000C3208DD02F1140CC2F10C0201FA0CF067
:1003A80021FA02F10CE002F11402D8BFC2F1200CCC
:1003B80001FA02F120FA0CFCDCBF41EA0C01904082
:1003C800E41AA2BF01EB0451294330BD6FEA0404CB
:1003D8001F3C1CDA0C340EDC04F11404C4F12002B6
:1003E80020FA04F001FA02F340EA030021FA04F3C8
:1003F80045EA030130BDC4F10C04C4F1200220FA1F
:1004080002F001FA04F340EA0300294630BD21FA5C
:1004180004F0294630BD94F0000F83F4801306BF22
:1004280081F480110134013D4EE77FEA645C18BF16
:100438007FEA655C29D094EA050F08BF90EA020FAD
:1004480005D054EA000C04BF1946104630BD91EAA5
:10045800030F1EBF0021002030BD5FEA545C05D1A8
:100468004000494128BF41F0004130BD14F58004E7
:100478003CBF01F5801130BD01F0004545F0FE415B
:1004880041F470014FF0000030BD7FEA645C1ABF90
:10049800194610467FEA655C1CBF0B46024650EAC7
:1004A800013406BF52EA033591EA030F41F40021F3
:1004B80030BD00BF90F0000F04BF0021704730B579
:1004C8004FF4806404F132044FF000054FF000014E
:1004D80050E700BF90F0000F04BF0021704730B50F
:1004E8004FF4806404F1320410F0004548BF4042E4
:1004F8004FF000013EE700BF42004FEAE2014FEA39
:1005080031014FEA02701FBF12F07F4393F07F4F13
:1005180081F06051704732F07F4208BF704793F016
:100528007F4F04BF41F40021704730B54FF4607429
:1005380001F0004521F000411CE700BF50EA01022C
:1005480008BF704730B54FF000050AE050EA0102D5
:1005580008BF704730B511F0004502D5404261EB45
:1005680041014FF4806404F132045FEA915C3FF486
:10057800D8AE4FF003025FEADC0C18BF03325FEA23
:10058800DC0C18BF033202EBDC02C2F1200300FAD4
:1005980003FC20FA02F001FA03FE40EA0E0021FAF9
:1005A80002F11444BDE600BF70B54FF0FF0C4CF4E7
:1005B800E06C1CEA11541DBF1CEA135594EA0C0F99
:1005C80095EA0C0F00F0DEF82C4481EA030621EAD4
:1005D8004C5123EA4C5350EA013518BF52EA03350F
:1005E80041F4801143F4801338D0A0FB02CE4FF0C1
:1005F8000005E1FB02E506F00042E0FB03E54FF0F1
:100608000006E1FB03569CF0000F18BF4EF0010EE8
:10061800A4F1FF04B6F5007F64F5407404D25FEAE4
:100628004E0E6D4146EB060642EAC62141EA555197
:100638004FEAC52040EA5E504FEACE2EB4F1FD0CD9
:1006480088BFBCF5E06F1ED8BEF1004F08BF5FEA57
:10065800500E50F1000041EB045170BD06F0004609
:1006680046EA010140EA020081EA0301B4EB5C04B6
:10067800C2BFD4EB0C0541EA045170BD41F48011AE
:100688004FF0000E013C00F3AB8014F1360FDEBFD3
:10069800002001F0004170BDC4F10004203C35DAAF
:1006A8000C341BDC04F11404C4F1200500FA05F332
:1006B80020FA04F001FA05F240EA020001F00042D3
:1006C80021F0004110EBD37021FA04F642EB060149
:1006D8005EEA430E08BF20EAD37070BDC4F10C0473
:1006E800C4F1200500FA04F320FA05F001FA04F237
:1006F80040EA020001F0004110EBD37041F1000123
:100708005EEA430E08BF20EAD37070BDC4F120052D
:1007180000FA05F24EEA020E20FA04F301FA05F295
:1007280043EA020321FA04F001F0004121FA04F23D
:1007380020EA020000EBD3705EEA430E08BF20EA0D
:10074800D37070BD94F0000F0FD101F00046400047
:1007580041EB010111F4801F08BF013CF7D041EAC9
:10076800060195F0000F18BF704703F000465200CD
:1007780043EB030313F4801F08BF013DF7D043EA9E
:100788000603704794EA0C0F0CEA135518BF95EA54
:100798000C0F0CD050EA410618BF52EA4306D1D1DB
:1007A80081EA030101F000414FF0000070BD50EAFA
:1007B800410606BF1046194652EA430619D094EA84
:1007C8000C0F02D150EA013613D195EA0C0F05D16E
:1007D80052EA03361CBF104619460AD181EA0301C2
:1007E80001F0004141F0FE4141F470014FF000007A
:1007F80070BD41F0FE4141F4780170BD70B54FF015
:10080800FF0C4CF4E06C1CEA11541DBF1CEA135594
:1008180094EA0C0F95EA0C0F00F0A7F8A4EB050476
:1008280081EA030E52EA03354FEA013100F088806D
:100838004FEA03334FF0805545EA131343EA126336
:100848004FEA022245EA111545EA10654FEA0026EB
:100858000EF000419D4208BF964244F1FD0404F5A4
:10086800407402D25B084FEA3202B61A65EB030500
:100878005B084FEA32024FF480104FF4002CB6EBBD
:10088800020E75EB030E22BFB61A754640EA0C003D
:100898005B084FEA3202B6EB020E75EB030E22BF7D
:1008A800B61A754640EA5C005B084FEA3202B6EBBE
:1008B800020E75EB030E22BFB61A754640EA9C007D
:1008C8005B084FEA3202B6EB020E75EB030E22BF4D
:1008D800B61A754640EADC0055EA060E18D04FEA0B
:1008E800051545EA16754FEA06164FEAC30343EAAB
:1008F80052734FEAC2025FEA1C1CC0D111F4801F78
:100908000BD141EA00014FF000004FF0004CB6E770
:1009180011F4801F04BF01430020B4F1FD0C88BF0F
:10092800BCF5E06F3FF6AFAEB5EB030C04BFB6EB1A
:10093800020C5FEA500C50F1000041EB045170BD0D
:100948000EF0004E4EEA113114EB5C04C2BFD4EB3A
:100958000C0541EA045170BD41F480114FF0000EBE
:10096800013C90E645EA060E8DE60CEA135594EA3A
:100978000C0F08BF95EA0C0F3FF43BAF94EA0C0F3D
:100988000AD150EA01347FF434AF95EA0C0F7FF4B2
:1009980025AF104619462CE795EA0C0F06D152EA06
:1009A80003353FF4FDAE1046194622E750EA4106EA
:1009B80018BF52EA43067FF4C5AE50EA41047FF4FB
:1009C8000DAF52EA43057FF4EBAE12E74FF0FF3C60
:1009D80006E000BF4FF0010C02E000BF4FF0010C31
:1009E8004DF804CD4FEA410C7FEA6C5C4FEA430CAA
:1009F80018BF7FEA6C5C1BD001B050EA410C0CBFF9
:100A080052EA430C91EA030F02BF90EA020F00205A
:100A1800704710F1000F91EA030F58BF994208BFC1
:100A280090422CBFD8176FEAE37040F0010070477E
:100A38004FEA410C7FEA6C5C02D150EA013C07D1D5
:100A48004FEA430C7FEA6C5CD6D152EA033CD3D020
:100A58005DF8040B704700BF8446104662468C461A
:100A68001946634600E000BF01B5FFF7B7FF00284D
:100A780048BF10F1000F01BD4DF808EDFFF7F4FF76
:100A88000CBF012000205DF808FB00BF4DF808ED01
:100A9800FFF7EAFF34BF012000205DF808FB00BF24
:100AA8004DF808EDFFF7E0FF94BF012000205DF846
:100AB80008FB00BF4DF808EDFFF7CEFF94BF0120FB
:100AC80000205DF808FB00BF4DF808EDFFF7C4FFF4
:100AD80034BF012000205DF808FB00BF4FEA410C3D
:100AE8007FEA6C5C02D150EA013C0AD14FEA430C20
:100AF8007FEA6C5C02D152EA033C02D14FF000005D
:100B080070474FF0010070474FEA410212F500129A
:100B180015D211D56FF47873B3EB625212D94FEA3C
:100B2800C12343F0004343EA505311F0004F23FA26
:100B380002F018BF404270474FF00000704750EA7B
:100B4800013005D111F0004008BF6FF00040704738
:100B58004FF00000704700BF80F0004002E000BF87
:100B680081F0004142001FBF5FEA410392EA030F90
:100B78007FEA226C7FEA236C6AD04FEA1262D2EBDA
:100B88001363C1BFD218414048404140B8BF5B42DF
:100B9800192B88BF704710F0004F40F4000020F078
:100BA8007F4018BF404211F0004F41F4000121F08E
:100BB8007F4118BF494292EA030F3FD0A2F10102D8
:100BC80041FA03FC10EB0C00C3F1200301FA03F116
:100BD80000F0004302D5494260EB4000B0F5000F39
:100BE80013D3B0F1807F06D340084FEA310102F1F8
:100BF8000102FE2A51D2B1F1004F40EBC25008BFAA
:100C080020F0010040EA03007047490040EB000073
:100C1800013A28BFB0F5000FEDD2B0FA80FCACF174
:100C2800080CB2EB0C0200FA0CF0AABF00EBC250A1
:100C380052421843BCBFD0401843704792F0000F8F
:100C480081F4000106BF80F400000132013BB5E7E2
:100C58004FEA41037FEA226C18BF7FEA236C21D058
:100C680092EA030F04D092F0000F08BF08467047BD
:100C780090EA010F1CBF0020704712F07F4F04D18B
:100C8800400028BF40F00040704712F100723CBF9E
:100C980000F50000704700F0004343F0FE4040F4C8
:100CA800000070477FEA226216BF08467FEA236386
:100CB8000146420206BF5FEA412390EA010F40F471
:100CC800800070474FF0000304E000BF10F00043BD
:100CD80048BF40425FEA000C08BF704743F09643A4
:100CE80001464FF000001CE050EA010208BF7047BF
:100CF8004FF000030AE000BF50EA010208BF704746
:100D080011F0004302D5404261EB41015FEA010C5A
:100D180002BF84460146002043F0B64308BFA3F152
:100D28008053A3F50003BCFA8CF2083AA3EBC25334
:100D380010DB01FA02FC634400FA02FCC2F1200253
:100D4800BCF1004F20FA02F243EB020008BF20F08A
:100D58000100704702F1200201FA02FCC2F12002F0
:100D680050EA4C0021FA02F243EB020008BF20EAE5
:100D7800DC7070474FF0FF0C1CEAD0521EBF1CEA13
:100D8800D15392EA0C0F93EA0C0F6FD01A4480EA01
:100D9800010C400218BF5FEA41211ED04FF00063EA
:100DA80043EA501043EA5111A0FB01310CF0004016
:100DB800B1F5000F3EBF490041EAD3715B0040EA3C
:100DC800010062F17F02FD2A1DD8B3F1004F40EB0C
:100DD800C25008BF20F00100704790F0000F0CF0DF
:100DE800004C08BF49024CEA502040EA51207F3AA3
:100DF800C2BFD2F1FF0340EAC250704740F400007E
:100E08004FF00003013A5DDC12F1190FDCBF00F06E
:100E180000407047C2F10002410021FA02F1C2F11C
:100E2800200200FA02FC5FEA310040F1000053EAB8
:100E38004C0308BF20EADC70704792F0000F00F006
:100E4800004C02BF400010F4000F013AF9D040EA0C
:100E58000C0093F0000F01F0004C02BF490011F4A0
:100E6800000F013BF9D041EA0C018FE70CEAD1539E
:100E780092EA0C0F18BF93EA0C0F0AD030F0004C1E
:100E880018BF31F0004CD8D180EA010000F00040D2
:100E9800704790F0000F17BF90F0004F084691F090
:100EA800000F91F0004F14D092EA0C0F01D14202CA
:100EB8000FD193EA0C0F03D14B0218BF084608D193
:100EC80080EA010000F0004040F0FE4040F40000DD
:100ED800704740F0FE4040F4400070474FF0FF0C70
:100EE8001CEAD0521EBF1CEAD15392EA0C0F93EAB7
:100EF8000C0F69D0A2EB030280EA010C49024FEA09
:100F0800402037D04FF0805343EA111143EA1013C1
:100F18000CF000408B4238BF5B0042F17D024FF479
:100F2800000C8B4224BF5B1A40EA0C00B3EB510F54
:100F380024BFA3EB510340EA5C00B3EB910F24BF3D
:100F4800A3EB910340EA9C00B3EBD10F24BFA3EBC2
:100F5800D10340EADC001B0118BF5FEA1C1CE0D18A
:100F6800FD2A3FF650AF8B4240EBC25008BF20F03D
:100F7800010070470CF0004C4CEA50207F32C2BF91
:100F8800D2F1FF0340EAC250704740F400004FF02E
:100F98000003013A37E792F0000F00F0004C02BF5F
:100FA800400010F4000F013AF9D040EA0C0093F029
:100FB800000F01F0004C02BF490011F4000F013B83
:100FC800F9D041EA0C0195E70CEAD15392EA0C0FEB
:100FD80008D142027FF47DAF93EA0C0F7FF470AF23
:100FE800084676E793EA0C0F04D14B023FF44CAF66
:100FF80008466EE730F0004C18BF31F0004CCAD1FB
:1010080030F000427FF45CAF31F000437FF43CAF36
:101018005FE700BF4FF0FF3C06E000BF4FF0010C58
:1010280002E000BF4FF0010C4DF804CD4FEA40023A
:101038004FEA41037FEA226C18BF7FEA236C11D084
:1010480001B052EA530C18BF90EA010F58BFB2EB37
:10105800030088BFC81738BF6FEAE17018BF40F0B7
:10106800010070477FEA226C02D15FEA402C05D16B
:101078007FEA236CE4D15FEA412CE1D05DF8040BF0
:10108800704700BF844608466146FFE70FB5FFF783
:10109800C9FF002848BF10F1000F0FBD4DF808ED3B
:1010A800FFF7F4FF0CBF012000205DF808FB00BF2C
:1010B8004DF808EDFFF7EAFF34BF012000205DF886
:1010C80008FB00BF4DF808EDFFF7E0FF94BF0120D3
:1010D80000205DF808FB00BF4DF808EDFFF7D2FFD0
:1010E80094BF012000205DF808FB00BF4DF808ED13
:1010F800FFF7C8FF34BF012000205DF808FB00BFE0
:101108004FEA40024FEA41037FEA226C02D15FEACC
:10111800402C08D17FEA236C02D15FEA412C02D12E
:101128004FF0000070474FF0010070474FEA40024F
:10113800B2F1FE4F0FD34FF09E03B3EB12620DD9FD
:101148004FEA002343F0004310F0004F23FA02F067
:1011580018BF404270474FF00000704712F1610F0E
:1011680001D1420205D110F0004008BF6FF00040E5
:1011780070474FF00000704742000ED2B2F1FE4FA8
:101188000BD34FF09E03B3EB126209D44FEA00234E
:1011980043F0004323FA02F070474FF00000704715
:1011A80012F1610F01D1420202D14FF0FF307047B6
:1011B8004FF00000704700BF80B483B000AF002339
:1011C800FB7102E0FB790133FB71FB791D2BF9D927
:1011D80000BF00BF0C37BD4680BC704780B500AF6C
:1011E800012208210C4803F0C6FB012202210A480B
:1011F80003F0C1FBFFF7E0FF00220821064803F0D7
:10120800BAFBFFF7D9FF00220221034803F0B3FB22
:10121800FFF7D2FF00BF80BD001C014080B584B03D
:1012280000AF0346FB710023FB732CE097F90730EE
:10123800002B05DA01220821174803F09CFB04E083
:1012480000220821144803F096FBFFF7B5FF01229E
:101258000221114803F08FFBFFF7AEFF00220221A5
:101268000D4803F088FBFB7B072B04D101220821E2
:10127800094803F080FBFB795B00FB71FFF79CFFDB
:10128800FB7B0133FB73FB7B072BCFD900BF00BF70
:101298001037BD4680BD00BF001C014080B582B03C
:1012A80000AF0023BB710023FB711DE0BB795B001D
:1012B800BB7101220221104803F05DFBFFF77CFFA0
:1012C80008210D4803F040FB0346012B02D1BB79EE
:1012D8000133BB7100220221074803F04CFBFFF7E2
:1012E8006BFFFB790133FB71FB79072BDED9BB79E7
:1012F80018460837BD4680BD001C014080B582B045
:1013080000AF01220821124803F035FBFFF754FF14
:10131800012202210E4803F02EFBFFF74DFF0821A2
:101328000B4803F011FB0346012B02D10123FB718B
:1013380001E00023FB7100220221054803F01BFB9A
:10134800FFF73AFFFB7918460837BD4680BD00BF56
:10135800001C014080B500AF012208210A4803F0B3
:101368000AFBFFF729FF01220221074803F003FBCC
:10137800FFF722FF00220221034803F0FCFAFFF7DF
:101388001BFF00BF80BD00BF001C014080B500AF3F
:1013980000220821084803F0EEFA0122022106483B
:1013A80003F0E9FAFFF708FF01220821024803F0D9
:1013B800E2FA00BF80BD00BF001C014080B586B0C6
:1013C80000AF104B9B690F4A43F0800393610D4BAC
:1013D8009B6903F080037B607B681123FB6000231B
:1013E8003B6103237B610A23BB6007F108031946AD
:1013F800054803F015F9FFF7C9FF00BF1837BD46C8
:1014080080BD00BF00100240001C014080B584B0C0
:1014180000AF0346FB710821164803F095FA03460E
:10142800012B21D10221134803F08EFA0346012B28
:101438001AD1FFF7D3FEFB795B00FB73FB7B1846E1
:10144800FFF7ECFEFFF75AFF0346BB73BB7B002B8D
:1014580003D1094805F03EFE02E0084805F03AFECF
:10146800FFF794FFBB7B00E0012318461037BD4609
:1014780080BD00BF001C0140589D0008689D000801
:1014880080B584B000AF0346FB71FF23FB73FFF701
:10149800A5FE6C20FFF7C2FEFFF730FF0346BB73C3
:1014A800BB7B002B03D0FFF771FFFF2327E0FB79FD
:1014B8001846FFF7B3FEFFF721FF0346BB73BB7B5C
:1014C800002B03D0FFF762FFFF2318E0FFF786FE2B
:1014D8006D20FFF7A3FEFFF711FF0346BB73BB7B2D
:1014E800002B03D0FFF752FFFF2308E0FFF7D6FEDB
:1014F8000346FB73FFF72EFFFFF748FFFB7B1846F9
:101508001037BD4680BD80B582B000AF0C20FFF714
:10151800B7FF0346FB71FB79FF2B02D14FF6FF7330
:1015280016E00D20FFF7ACFF0346BB71BB79FF2B1C
:1015380002D14FF6FF730BE0FB791B021BB203F4D9
:1015480070631AB2BB791BB213431BB2BB80BB8852
:1015580018460837BD4680BD80B582B000AF0B2065
:10156800FFF78EFF0346FB71FB791946184805F013
:101578004BFDFB79FF2B24D0FB7903F02003002BD4
:1015880003D0144805F0A6FD02E0134805F0A2FDBB
:10159800FB7903F01003002B02D0104805F09AFDE8
:1015A800FB7903F00803002B02D00D4805F092FDEB
:1015B800FB7903F01803002B06D10A4805F08AFDD1
:1015C80002E0094805F086FD00BF0837BD4680BD2A
:1015D800809D0008A49D0008BC9D0008DC9D0008B3
:1015E800FC9D00081C9E0008389E000880B582B04B
:1015F80000AF1B20FFF744FF0346FB711C20FFF7D9
:101608003FFF0346BB71FB79FF2B1ED0BB79FF2B35
:101618001BD0FB791B021BB203F470631AB2BB79AF
:101628001BB213431BB2BB80BB8819460B4805F09D
:10163800EBFCBB88B3F5FA6F03D9094805F04AFDFE
:1016480007E0084805F046FD03E0074805F042FDBD
:1016580000BF00BF0837BD4680BD00BF609E0008C0
:10166800789E0008949E0008E09E00082DE9F0414D
:1016780088B004AF364805F02DFDFFF76DFFFFF782
:10168800B5FF344805F026FD0023FB6054E0FFF762
:101698003AFF03467B817B894FF6FF7293423ED027
:1016A8007B891846FFF712FB03462B491846FFF7BC
:1016B80061FB03464FF08B411846FFF70FFC0346CA
:1016C8007B607B891846FFF701FB034619461846DD
:1016D800FFF748FA034621491846FFF74BFB034634
:1016E8004FF08B411846FFF7F9FB03463B60FB6858
:1016F8005E1CB7F80A807868FEF7FEFE04460D46C1
:101708003868FEF7F9FE02460B46CDE90223CDE91B
:10171800004542463146124805F076FC05E0FB6874
:10172800013319460F4805F06FFC4FF4FA7001F0C9
:10173800B1FDFB680133FB60FB68092BA7DD0A4894
:1017480005F0C8FC00BF1037BD46BDE8F08100BFFA
:10175800049F0008289F00080000B443D00F4940A8
:101768004C9F0008789F00088C9F000880B586B0C1
:1017780000AFF860B9607A60FB68012B02D0FB68A3
:10178800022B11D17B689AB24FF0FF33B968094830
:1017980004F045FD0346FB75FB7D002B01D17B68FA
:1017A80004E04FF0FF3301E04FF0FF3318461837DD
:1017B800BD4680BDC402002080B586B000AF01F0F0
:1017C80007FD01F05DF801F0B9F801F069F901F0E1
:1017D80001F901F0B1F901F06BFAFFF7EFFD00F044
:1017E80029F900F001FA3620FFF710FE0346FB74D2
:1017F800FB7C002B03D13A4805F06CFC02E0394829
:1018080005F068FCFFF732FF374BDB68374A136097
:101818004FF07C524FF07C514FF07C5000F06EF846
:101828000021314803F0C0FF04212F4803F0BCFF1A
:1018380008212D4803F0B8FF00F0EAF82C4BFB60B4
:101848002C4B4FF000021A6001F01AFD786101F08C
:1018580017FD02467B69D31A042B04D900F00EFA4F
:1018680001F00EFD78614FF08243BB60214B1B688D
:101878001946F868FFF774F903467B601E49B86893
:10188800FFF778FA03463B607B6823F0004319466C
:101898003868FFF70DFC0346002B1DD04FF0000100
:1018A8007868FFF723FC0346002B0AD0114B1B680E
:1018B80039681846FFF756F903461A460D4B1A6061
:1018C800C5E70C4B1B6839681846FFF749F903460A
:1018D8001A46084B1A60BAE7064AFB681360B6E76F
:1018E800E89F0008FC9F00087C02002020030020DD
:1018F8000000A040300300200AD7A33B90B585B074
:1019080000AFF860B9607A604FF00001F868FFF73F
:10191800CFFB0346002B02D04FF00003FB604FF0D3
:101928007E51F868FFF7E2FB0346002B02D04FF028
:101938007E53FB604FF00001B868FFF7B9FB034620
:10194800002B02D04FF00003BB604FF07E51B86807
:10195800FFF7CCFB0346002B02D04FF07E53BB6051
:101968004FF000017868FFF7A3FB0346002B02D075
:101978004FF000037B604FF07E517868FFF7B6FBAD
:101988000346002B02D04FF07E537B601E4B1B6832
:101998001846FFF797F90346F9681846FFF7EAF97A
:1019A80003461A46194B1C681046FFF7E5FB034629
:1019B8006363154B1B681846FFF784F90346B9683B
:1019C8001846FFF7D7F903461A46104B1C6810460D
:1019D800FFF7D2FB0346A3630B4B1B681846FFF7C0
:1019E80071F9034679681846FFF7C4F903461A46A1
:1019F800064B1C681046FFF7BFFB0346E36300BFB6
:101A08001437BD4690BD00BF200300207C02002093
:101A180080B500AF01224FF48071044802F0ABFF9B
:101A2800034B01221A7000BF80BD00BF001801409F
:101A38002403002080B500AF00224FF480710448D1
:101A480002F099FF034B00221A7000BF80BD00BF4F
:101A5800001801402403002090B585B000AF022291
:101A68005549564801F024FD01F00AFC0346643349
:101A7800FB6000BF524B1B78DBB2002B05D101F095
:101A8800FFFB0246FB689342F4D84D4B1B78DBB250
:101A9800002B00F08C804A4B00221A70464B1B88A2
:101AA8009BB21846FFF70EF9034646491846FFF75A
:101AB80061F903464FF08B411846FFF70FFA0346CA
:101AC800BB603D4B5B889BB21846FFF7FBF80346AB
:101AD8003C491846FFF74EF903464FF08B4118462C
:101AE800FFF7FCF903467B60374B3B603749B86822
:101AF800FFF736F803461C4635493868FFF73AF9C8
:101B0800034619462046FFF7E9F903461A46314BC2
:101B18001A6031497868FFF723F803461C462C49B8
:101B28003868FFF727F9034619462046FFF7D6F924
:101B380003461A46294B1A60264B1B68274A126827
:101B480011461846FFF70EF8034683F00043244A6F
:101B58001360204B1B6823F0004322491846FFF707
:101B6800A7FA0346002B03D01A4B4FF000021A6065
:101B78001A4B1B6823F000431A491846FFF798FAD6
:101B88000346002B03D0154B4FF000021A60144B8C
:101B98001B6823F0004313491846FFF789FA0346E8
:101BA800002B00D103E00E4B4FF000021A6000BF7B
:101BB8001437BD4690BD00BF0C030020080200206A
:101BC80010030020333353400AD7233C8195D33F79
:101BD800000048421403002046B6D33F18030020F3
:101BE8001C0300200AD7A33C80B500AF1B4802F0B5
:101BF80011F80346002B04D0194805F06BFA01F0E0
:101C080081F8184803F06EFC0346002B04D01648F0
:101C180005F060FA01F076F80821124803F0BAFCE2
:101C28000346002B04D0114805F054FA01F06AF875
:101C380002220F49094801F03BFC0346002B04D05F
:101C48000C4805F047FA01F05DF80B4805F042FA38
:101C58004FF47A7001F01EFB00BF80BD080200201F
:101C680014A000087C02002034A0000854A000083A
:101C78000C03002078A0000898A000082DE9B04FB8
:101C8800B0B00AAF8D4B1B78002B09D14FF07C52B6
:101C98004FF07C514FF07C50FFF730FE00F0D2BD82
:101CA800874B1B68002B04D101F0EAFA0346844AEB
:101CB8001360FFF728FC0346A7F88630B7F886308C
:101CC8001846FEF7FFFF034619464FF08B40FEF714
:101CD80047FF03467B491846FFF74CF803464FF089
:101CE8008B411846FFF7FAF80346C7F88030764963
:101CF800D7F88000FEF734FF0346C7F88030734BEF
:101D08001B78002B07D0724AD7F8803013606F4BCE
:101D180000221A7054E06E4B1B681946D7F88000F1
:101D2800FEF71EFF0346C7F8943007E06549D7F869
:101D38009400FEF715FF0346C7F894306549D7F8B5
:101D48009400FFF7D3F90346002BEFD107E05D4974
:101D5800D7F89400FEF706FF0346C7F894305E49AB
:101D6800D7F89400FFF7A4F90346002BEFD15B499D
:101D7800D7F89400FFF7BAF90346002B03D0574B66
:101D8800C7F894300AE05649D7F89400FFF790F95D
:101D98000346002B02D0524BC7F894304FF07C51C9
:101DA800D7F89400FEF7E6FF03461A46484B1B682F
:101DB80019461046FEF7D6FE03461A46444B1A60EB
:101DC800434B1B68474A136009E0464B1B683D4973
:101DD8001846FEF7C5FE03461A46424B1A60414BA9
:101DE8001B6838491846FFF781F90346002BECD1E8
:101DF80009E03C4B1B6833491846FEF7B3FE03461F
:101E08001A46384B1A60374B1B684FF000011846CA
:101E1800FFF74EF90346002BEBD1324B1B683249D2
:101E28001846FEF7A7FF03462649184607F0DEF8CE
:101E380003462E4A13602E4B1B78002B40F08E80F1
:101E48002C4B1B68002B07D101F01AFA0346294ACC
:101E58001360294805F03EF901F012FA0246254BB5
:101E68001B68D31AB3F57A7F52D24FF07C524FF0E9
:101E78007C514FF07C50FFF741FDFFF7EDFD1F4B04
:101E88001B681F4A126811461846FEF76BFE034688
:101E98001A461A4B1A601B4B1B681B4A12681146DC
:101EA8001846FEF75FFE03461A46164B1A60174B94
:101EB8001B680133154A136000F0C4BC24030020DA
:101EC80034030020DB0FC9400AD7A33E00000020DE
:101ED80038030020DB0F4940DB0F49C0CDCCCC3D97
:101EE800CDCCCCBD2C0300200000E040280300200E
:101EF8003C03002040030020CCA00008440300203D
:101F08001403002048030020180300204C0300207D
:101F1800524B1C68524B1B681846FEF7D7FE034607
:101F280019462046FEF7DAFF03461A464D4B1A605B
:101F38004D4B1C684A4B1B681846FEF7C7FE034604
:101F480019462046FEF7CAFF03461A46474B1A6051
:101F5800474B01221A70474805F0BCF8464B1B78DE
:101F6800002B17D1424B1B78002B13D001F088F9B6
:101F78000246424B1B68D31AB3F5FA6F0AD93E4B97
:101F880001221A7001F07CF903463D4A13603D486E
:101F980005F0A0F8384B1B78002B52D001F070F9EF
:101FA8000246374B1B68D31AFB67FB6FB3F5FA5F22
:101FB80047D9354B1B68042B2FD801A252F823F0C0
:101FC800DD1F0008EB1F0008F91F000807200008A4
:101FD800152000082D4B2E4A1A602E4805F07AF875
:101FE8001BE02A4B2C4A1A602C4805F073F814E0C1
:101FF800264B2B4A1A602B4805F06CF80DE0234B52
:10200800294A1A60294805F065F806E01F4B284A56
:102018001A60284805F05EF800BF1B4B1B68591C66
:10202800254B83FB01235A10CB17D21A13469B006A
:102038001344CA1A144B1A6001F022F90346104AD5
:1020480013600D4B1B78002B38D14FF07C524FF0AA
:102058007C514FF07C50FFF751FCF3E34403002020
:102068004C030020500300204803002054030020A4
:102078003C030020E4A0000858030020340300209B
:102088005C03002000A10008600300200400002079
:10209800CDCC4C3F28A10008CDCC4C3D5CA100081C
:1020A8009A99993F8CA100089A99993EC0A1000875
:1020B8000AD7A33CECA1000867666666FFF7CCFC6C
:1020C800624B1B68624A126811461846FEF748FDC3
:1020D8000346BB675F4B1B685F4A12681146184688
:1020E800FEF73EFD03467B675C4B1B685C49184660
:1020F800FEF740FE03461C465A49B86FFEF73AFE03
:10210800034619462046FEF72DFD03461A46534B53
:102118001A60554B1B6852491846FEF72BFE0346BA
:102128001C465049786FFEF725FE0346194620469F
:10213800FEF718FD03461A464B4B1A60474B1B68BF
:102148003B67494B1B6819461846FEF70BFD0346CB
:102158001A46424B1B6819461046FEF703FD034614
:1021680042491846FEF7BAFE0346FB66404B1B6819
:10217800184606F057FFB8663D4B1B68184606F030
:1021880089FF7866B96E386FFEF7F4FD03461C4682
:10219800796EF86EFEF7EEFD034619462046FEF707
:1021A800E1FC03463B663B6F83F00043796E1846BB
:1021B800FEF7E0FD03461C46B96EF86EFEF7DAFD41
:1021C800034619462046FEF7CDFC0346FB65FB6D2A
:1021D80023F00043FB654FF08043BB652549B86D8C
:1021E800FEF7C8FD03467B65234B1B68234A12682C
:1021F80011461846FEF7B4FC03463B65796D386D09
:10220800FEF774FF0346002B0AD01C4B1B68796D40
:102218001846FEF7A7FC03461A46184B1A6033E027
:102228007B6D83F000431946386DFEF741FF034686
:10223800002B25D0114B1B68796D1846FEF790FCD2
:1022480003461A460D4B1A601EE000BF1403002017
:1022580050030020180300205403002064030020CA
:102268009A99193FCDCCCC3E680300202DB2DD3FB2
:10227800280300200AD7A33B040000200800002000
:10228800A24B1B68A24A13604FF00003FB64396E2F
:10229800F86CFEF765FC0346BB649D4B1B68F96D43
:1022A8001846FEF75DFC03467B649A4B1B684FF0AB
:1022B8007C511846FEF75EFD03461C464FF07C51E4
:1022C800B86CFEF757FD034619462046FEF74AFC50
:1022D80003461A468F4B1A608F4B1B684FF07C5190
:1022E8001846FEF747FD03461C464FF07C51786CB4
:1022F800FEF740FD034619462046FEF733FC034629
:102308001A46854B1A60854B3B64824B1B6823F049
:1023180000434FF07E511846FEF7CAFE0346002BD5
:1023280011D07C4B1B68396C1846FEF723FD034619
:102338001A467B4B1B6819461046FEF713FC0346EA
:102348001A46774B1A60744B1B6823F000434FF012
:102358007E511846FEF7ACFE0346002B11D06E4B9B
:102368001B68396C1846FEF705FD03461A466D4B87
:102378001B6819461046FEF7F5FB03461A46694BDB
:102388001A60674B1B684FF07C511846FEF7AEFE8B
:102398000346002B03D0624B4FF07C521A60604B0F
:1023A8001B684FF03F411846FEF782FE0346002B9C
:1023B80003D05B4B4FF03F421A605A4B1B684FF0FB
:1023C8007C511846FEF792FE0346002B03D0554B6E
:1023D8004FF07C521A60534B1B684FF03F41184630
:1023E800FEF766FE0346002B03D04E4B4FF03F42EC
:1023F8001A604D4BFB634D4BBB63464B1B68F96B37
:102408001846FEF7B7FC03461C46454B1B68B96BDC
:102418001846FEF7AFFC034619462046FEF7A2FB16
:102428000346C7F890303C4B1B68F96B1846FEF71B
:10243800A1FC03461C463B4B1B68B96B1846FEF7CC
:1024480099FC034619462046FEF78CFB0346C7F85D
:102458008C304FF08141D7F89000FEF747FE0346D5
:10246800002B03D04FF08143C7F890303049D7F89C
:102478009000FEF71DFE0346002B02D02C4BC7F838
:1024880090304FF08141D7F88C00FEF72FFE0346BD
:10249800002B03D04FF08143C7F88C302449D7F87C
:1024A8008C00FEF705FE0346002B02D0204BC7F830
:1024B8008C30204B1B6820491846FEF75BFC03460E
:1024C8001C461E49D7F89000FEF754FC03461946EF
:1024D8002046FEF747FB03461A46164B1A60184B70
:1024E8001B6815491846FEF745FC03461C46134968
:1024F800D7F88C00FEF73EFC034619462046FEF747
:1025080031FB03461A460E4B1A601BE004000020FC
:10251800080000206C030020700300200AD7A33BAA
:1025280074030020780300209A99993F0000C04066
:10253800000080C07C0300203333333F9A99993ED2
:10254800800300206F4B1B68B96E1846FEF712FC1B
:1025580003461C466C4B1B68796E1846FEF70AFC4E
:10256800034619462046FEF7FBFA03467B63654B94
:102578001B68796E1846FEF7FDFB03461C46624B46
:102588001B68B96E1846FEF7F5FB03461946204648
:10259800FEF7E8FA03463B637B6BFB624FF03F4173
:1025A800786BFEF7E7FB03461C465849386BFEF785
:1025B800E1FB034619462046FEF7D4FA0346BB6200
:1025C8004FF03F41786BFEF7D5FB03461C464F4959
:1025D800386BFEF7CFFB034619462046FEF7C0FAD4
:1025E80003467B624A49F86AFEF778FC03464FF0D7
:1025F8007C511846FEF7B6FA03463B624449B86A6E
:10260800FEF76CFC03464FF07C511846FEF7AAFA19
:102618000346FB613E49786AFEF760FC03464FF0CB
:102628007C511846FEF79EFA0346BB61394B1B687E
:1026380039491846FEF79EFB03461C463749386A57
:10264800FEF798FB034619462046FEF78BFA034629
:102658001A46304B1A60324B1B682F491846FEF752
:1026680089FB03461C462D49F869FEF783FB0346A0
:1026780019462046FEF776FA03461A46284B1A6092
:10268800284B1B6824491846FEF774FB03461C4672
:102698002249B869FEF76EFB034619462046FEF745
:1026A80061FA03461A461F4B1A601A4B1B681C4AEC
:1026B80011681C4A12681846FFF720F900F0E0FD7F
:1026C8000246194B1B68D31AC82B74D9174B1B68C1
:1026D800174A126811461846FEF742FA0346C7F829
:1026E80088301449D7F88800FEF700FD0346002B10
:1026F80024D01149D7F88800FEF732FA0346C7F804
:1027080088302BE07C030020800300202DB25D3F41
:10271800000040410C000020CDCC4C3FCDCC4C3EBD
:102728001000002014000020840300202C03002047
:1027380088030020DB0F4940DB0FC9404349D7F825
:102748008800FEF7B5FC0346002B07D04049D7F8B0
:102758008800FEF707FA0346C7F8883000F090FDB6
:1027680002463C4B1B68D31A1846FEF7ABFA0346E1
:1027780039491846FEF7B2FB03467B614FF000016A
:102788007869FEF7B3FC0346002B0BD0D7F88830E6
:1027980023F0004379691846FEF7A0FB03461A4662
:1027A8002E4B1A602E4B1B682E4A136000F068FDF2
:1027B8000346284A136000F063FD02462A4B1B6853
:1027C800D31AB3F57A7F3DD9284B1B681846FDF715
:1027D80093FEC7E90201264B1B681846FDF78CFEDD
:1027E80004460D46F86DFDF787FE80468946214B65
:1027F8001B681846FDF780FE82468B461E4B1B68F9
:102808001846FDF779FEC7E90001144B1B68184606
:10281800FDF772FE02460B46CDE90823D7E9001200
:10282800CDE90612CDE904ABCDE90289CDE9004531
:10283800D7E90223114804F0E7FB00F021FD034625
:10284800094A13609837BD46BDE8B08FDB0F49C011
:10285800DB0FC9408403002000007A448C03002069
:102868002C0300208803002090030020040000208F
:102878000800002070030020800300201CA200082C
:1028880080B596B000AF07F1300328220021184622
:1028980004F000FD07F11C0300221A605A609A60D8
:1028A800DA601A613B1D00221A605A609A60DA6089
:1028B8001A615A6101233B634FF480337B63002321
:1028C800BB6301233B640223FB644FF480333B6505
:1028D8004FF4E0137B6507F13003184602F064F803
:1028E8000346002B01D000F00DFA0F23FB610223F1
:1028F8003B6200237B624FF48063BB620023FB6270
:1029080007F11C030221184602F0D0FA0346002BF7
:1029180001D000F0F7F902237B604FF40043FB601D
:102928003B1D184602F050FC0346002B01D000F076
:10293800E9F900BF5837BD4680BD000080B588B0B2
:1029480000AF07F1100300221A605A609A60DA603B
:102958001E4B9B691D4A43F0800393611B4B9B6987
:1029680003F08003FB60FB68184B9B69174A43F030
:1029780004039361154B9B6903F00403BB60BB68B8
:10298800124B9B69114A43F0400393610F4B9B69BB
:1029980003F040037B607B6800224FF480710C4891
:1029A80001F0E9FF4FF480733B6101237B61002351
:1029B800BB610223FB6107F110031946044801F0CB
:1029C8002FFE00BF2037BD4680BD00BF001002406B
:1029D8000018014080B584B000AF3B1D00221A608A
:1029E8005A609A60214B224A1A60204B4FF4807239
:1029F8009A601E4B01221A731C4B00221A751B4B3E
:102A08004FF46022DA61194B00225A60174B0222F8
:102A18001A61164800F062FC0346002B01D000F052
:102A280071F904237B600123BB600723FB603B1D16
:102A380019460E4800F0F4FE0346002B01D000F0C2
:102A480061F905237B600223BB600723FB603B1D04
:102A58001946064800F0E4FE0346002B01D000F0BA
:102A680051F900BF1037BD4680BD00BF08020020E5
:102A7800003C014080B483B000AF78607B681B687D
:102A8800054A934202D1054B01221A7000BF0C3748
:102A9800BD4680BC704700BF003C014010030020C9
:102AA80080B582B000AF204B5B691F4A43F0020338
:102AB80053611D4B5B6903F002037B607B681B4B12
:102AC8001B4A1A60194B00225A60184B00229A6060
:102AD800164B8022DA60154B4FF480721A61134B43
:102AE8004FF480625A61114B20229A610F4B4FF4C8
:102AF8000052DA610D4801F053FA0346002B01D069
:102B080000F000F90B4B094A1A62084B094A5A624D
:102B1800002200213B2001F00CFA3B2001F025FAAD
:102B280000BF0837BD4680BD0010024038020020B3
:102B3800580402400802002080B598B000AF07F1A1
:102B4800580300221A605A6007F13C0300221A60F9
:102B58005A609A60DA601A615A619A6107F11C0337
:102B680020220021184604F095FB4F4B4F4A1A606B
:102B78004D4B00225A604C4B00229A604A4B4FF44E
:102B8800FA62DA60484B00221A61474B00225A6108
:102B9800454B00229A61444802F0B6FD0346002BDB
:102BA80001D000F0AFF80023BB650023FB6507F1F7
:102BB800580319463C4803F025FA0346002B01D078
:102BC80000F0A0F86023FB6300233B6400237B64D0
:102BD8000023BB640023FB6400233B6500237B6563
:102BE80007F13C03002219462F4802F0F3FE034682
:102BF800002B01D000F086F807F13C0304221946A7
:102C0800294802F0E7FE0346002B01D000F07AF8CD
:102C180007F13C0308221946234802F0DBFE03466D
:102C2800002B01D000F06EF80023FB6100233B620B
:102C380000237B620023BB620023FB624FF4005336
:102C48003B630023BB6307F11C031946164803F0D6
:102C580045FA0346002B01D000F054F83B46002209
:102C68001A605A609A60DA601A615A619A61602340
:102C78003B604FF47A737B600023BB6000233B61A9
:102C880000237B613B4608221946074802F046FEAE
:102C98000346002B01D000F035F8034800F0FAF89D
:102CA80000BF6037BD4680BD7C020020002C01407B
:102CB80080B500AF114B124A1A60104B4FF4E13245
:102CC8005A600E4B00229A600C4B0022DA600B4BC4
:102CD80000221A61094B0C225A61084B00229A61A2
:102CE800064B0022DA61054803F049FA0346002B37
:102CF80001D000F007F800BF80BD00BFC40200206B
:102D08000044004080B400AF72B600BFFEE7000088
:102D180080B485B000AF154B9B69144A43F001039A
:102D28009361124B9B6903F00103BB60BB680F4BB7
:102D3800DB690E4A43F08053D3610C4BDB6903F027
:102D480080537B607B680A4B5B68FB60FB6823F001
:102D5800E063FB60FB6843F00073FB60044AFB68B8
:102D6800536000BF1437BD4680BC70470010024056
:102D78000000014080B588B000AF786007F110030B
:102D880000221A605A609A60DA607B681B682D4AD4
:102D9800934252D12C4B9B692B4A43F400439361D5
:102DA800294B9B6903F40043FB60FB68264B9B6936
:102DB800254A43F080039361234B9B6903F080030A
:102DC800BB60BB68C0233B6103237B6107F1100331
:102DD80019461E4801F024FC1D4B1E4A1A601C4B64
:102DE80000225A601A4B00229A60194B8022DA603E
:102DF800174B4FF480721A61154B4FF480625A6179
:102E0800134B20229A61124B4FF44052DA6110485A
:102E180001F0C6F80346002B01D0FFF773FF7B686B
:102E28000B4A1A620A4A7B685362002200212F204B
:102E380001F07FF82F2001F098F800BF2037BD4639
:102E480080BD00BF003C014000100240001C014052
:102E5800380200205804024080B485B000AF786082
:102E68007B681B68094A93420BD1094B9B69084A46
:102E780043F400639361064B9B6903F40063FB60B2
:102E8800FB6800BF1437BD4680BC7047002C01406A
:102E98000010024080B588B000AF786007F10C03DD
:102EA80000221A605A609A60DA607B681B68194AC7
:102EB80093422AD1184B9B69174A43F04003936108
:102EC800154B9B6903F04003BB60BB684FF4285364
:102ED800FB6002233B610223BB6107F10C03194627
:102EE8000E4801F09DFB0E4B5B68FB61FB6923F00C
:102EF800C003FB61FB6943F0E063FB61FB6943F0DE
:102F0800C003FB61064AFB69536000BF2037BD461A
:102F180080BD00BF002C0140001002400018014095
:102F28000000014080B588B000AF786007F1100359
:102F380000221A605A609A60DA607B681B681B4A34
:102F480093422FD11A4BDB69194A43F40033D361FA
:102F5800174BDB6903F40033FB60FB68144B9B6978
:102F6800134A43F004039361114B9B6903F0040374
:102F7800BB60BB6804233B6102237B610323FB61C5
:102F880007F1100319460B4801F04AFB08233B617F
:102F980000237B610023BB6107F110031946054834
:102FA80001F03EFB00BF2037BD4680BD0044004015
:102FB800001002400008014080B400AFFEE780B472
:102FC80000AFFEE780B400AFFEE780B400AFFEE7D5
:102FD80080B400AFFEE780B400AF00BFBD4680BC40
:102FE800704780B400AF00BFBD4680BC704780B456
:102FF80000AF00BFBD4680BC704780B500AF00F091
:103008002DF900BF80BD000080B500AF024800F078
:103018002DFB00BF80BD00BF0802002080B500AFB7
:10302800024801F093F800BF80BD00BF38020020BD
:1030380080B400AF01231846BD4680BC704780B5F8
:1030480082B000AF7860396004F076F90346162242
:103058001A604FF0FF3318460837BD4680BD80B56B
:1030680082B000AF78604FF0FF317868FFF7E7FF74
:10307800FEE780B586B000AFF860B9607A600023DB
:103088007B610AE0AFF300800146BB685A1CBA6056
:10309800CAB21A707B6901337B617A697B689A428C
:1030A800F0DB7B6818461837BD4680BD80B483B016
:1030B80000AF78604FF0FF3318460C37BD4680BC30
:1030C800704780B483B000AF786039603B684FF4D4
:1030D80000525A60002318460C37BD4680BC704722
:1030E80080B483B000AF7860012318460C37BD4622
:1030F80080BC704780B485B000AFF860B9607A6072
:10310800002318461437BD4680BC704780B586B08A
:1031180000AF7860144A154BD31A7B617B693B6119
:10312800134B1B68002B02D1114B124A1A60104B2B
:103138001A687B6813443A699A4207D204F0FCF88B
:1031480003460C221A604FF0FF3309E0084B1B6856
:10315800FB60074B1A687B681344054A1360FB68D9
:1031680018461837BD4680BD000001200004000045
:1031780094030020E804002080B400AF00BFBD46DF
:1031880080BC7047FFF7F8FF0B480C490C4A002336
:1031980002E0D458C4500433C4188C42F9D3094A05
:1031A800094C002301E013600432A242FBD304F06F
:1031B800C9F8FEF701FB704700000020EC01002071
:1031C800FCA90008EC010020E8040020FEE700004C
:1031D80080B500AF084B1B68074A43F01003136023
:1031E800032000F09BFE0F2000F008F8FFF790FD89
:1031F8000023184680BD00BF0020024080B582B081
:1032080000AF7860124B1A68124B1B7819464FF4BE
:103218007A73B3FBF1F3B2FBF3F3184600F0B3FE95
:103228000346002B01D001230EE07B680F2B0AD840
:10323800002279684FF0FF3000F07BFE064A7B6879
:103248001360002300E0012318460837BD4680BDFF
:1032580018000020200000201C00002080B400AFCF
:10326800054B1B781A46054B1B681344034A136029
:1032780000BFBD4680BC7047200000209803002096
:1032880080B400AF024B1B681846BD4680BC70472F
:103298009803002080B584B000AF7860FFF7F0FF96
:1032A800B8607B68FB60FB68B3F1FF3F05D00A4B51
:1032B8001B781A46FB681344FB6000BFFFF7E0FF6A
:1032C8000246BB68D31AFA689A42F7D800BF00BF13
:1032D8001037BD4680BD00BF2000002080B586B0F5
:1032E80000AF78600023FB7500233B610023BB60BF
:1032F8000023FB607B68002B01D10123CEE07B68B3
:103308009B68002B7B689B6A002B09D17B68002295
:10331800DA627B68002283F824207868FFF72AFDA8
:10332800786800F0CFFB0346FB757B689B6A03F067
:103338001003002B40F0A980FB7D002B40F0A580F6
:103348007B689B6A23F4885323F0020343F002024C
:103358007B689A627B685A687B681B6851498B4214
:103368000AD17B68DB69B3F5402F02D07B68DB6943
:1033780004E04FF4002301E07B68DB691A437B68B3
:103388001B7B5B001343BA681343BB607B689B6875
:10339800B3F5807F03D07B689B68012B02D14FF483
:1033A800807300E000233A6913433B617B681B7D0F
:1033B800012B19D17B681B7B002B09D17B689B698A
:1033C800013B5A033B69134343F400633B610BE041
:1033D8007B689B6A43F020027B689A627B68DB6AA1
:1033E80043F001027B68DA627B681B685B6823F440
:1033F80069417B681B683A690A435A607B681B68A5
:103408009A68294B13407A681268B9680B4393602D
:103418007B689B68B3F5807F03D07B689B68012B32
:1034280004D17B681B69013B1B05FB607B681B683B
:10343800DB6A23F470017B681B68FA680A43DA6266
:103448007B681B689A68194B1340BA689A420BD17B
:103458007B680022DA627B689B6A23F0030343F0EF
:1034680001027B689A6218E07B689B6A23F012036A
:1034780043F010027B689A627B68DB6A43F00102C2
:103488007B68DA620123FB7507E07B689B6A43F07F
:1034980010027B689A620123FB75FB7D184618377A
:1034A800BD4680BD003C0140FDF7E1FFFE0E1FFF59
:1034B80080B586B000AFF860B9607A600023FB750C
:1034C800FB681B68644A934204D0FB681B68634A24
:1034D800934206D1604B5B6803F47023002B40F0E5
:1034E800B380FB6893F82430012B01D10223AEE0AE
:1034F800FB68012283F82420F86800F089FA034663
:10350800FB75FB7D002B40F09A80FB689B6A23F4D7
:10351800706323F0010343F48072FB689A62FB68CE
:103528001B684E4A934205D14B4B5B6803F47023EA
:10353800002B15D1FB689B6A23F48012FB689A6202
:10354800FB681B685B6803F48063002B26D0FB686C
:103558009B6A23F4405343F48052FB689A621DE04F
:10356800FB689B6A43F48012FB689A62FB681B68DD
:10357800394A934204D0FB681B68384A93420DD1FC
:10358800354B5B6803F48063002B07D0FB689B6AAC
:1035980023F4405343F48052FB689A62FB689B6AA9
:1035A80003F48053002B06D0FB68DB6A23F0060285
:1035B800FB68DA6202E0FB680022DA62FB6800223C
:1035C80083F82420FB681B6A254A9A62FB681B6AF9
:1035D800244ADA62FB681B6A234A1A63FB681B6881
:1035E8006FF002021A60FB681B689A68FB681B6828
:1035F80042F480729A60FB68186AFB681B684C3357
:103608001946BA687B6800F041FDFB681B689B6837
:1036180003F46023B3F5602F08D1FB681B689A6830
:10362800FB681B6842F4A0029A600FE0FB681B6805
:103638009A68FB681B6842F480129A6006E0FB688F
:10364800002283F8242001E00123FB75FB7D184646
:103658001837BD4680BD00BF002401400028014046
:103668004F3B0008CB3B0008E73B000880B584B01F
:1036780000AF78607B681B681B68FB607B681B6811
:103688005B68BB60BB6803F02003002B3ED0FB687F
:1036980003F00203002B39D07B689B6A03F0100308
:1036A800002B05D17B689B6A43F400727B689A62A1
:1036B8007B681B689B6803F46023B3F5602F1DD1FA
:1036C8007B681B7B002B19D17B681B685A687B6859
:1036D8001B6822F020025A607B689B6A23F4807280
:1036E8007B689A627B689B6A03F48053002B05D140
:1036F8007B689B6A43F001027B689A627868FFF7EF
:10370800B9F97B681B686FF012021A60BB6803F096
:103718008003002B4DD0FB6803F00403002B48D036
:103728007B689B6A03F01003002B05D17B689B6ABA
:1037380043F400527B689A627B681B689B6803F4B9
:10374800E043B3F5E04F12D07B681B685B6803F475
:103758008063002B25D17B681B689B6803F460237A
:10376800B3F5602F1DD17B681B7B002B19D17B68BB
:103778001B685A687B681B6822F080025A607B6865
:103788009B6A23F480527B689A627B689B6A03F485
:103798008073002B05D17B689B6A43F001027B682C
:1037A8009A62786800F0E4FA7B681B686FF00C0294
:1037B8001A60BB6803F04003002B12D0FB6803F0CB
:1037C8000103002B0DD07B689B6A43F480327B6831
:1037D8009A62786800F012F87B681B686FF0010243
:1037E8001A6000BF1037BD4680BD80B483B000AFFB
:1037F800786000BF0C37BD4680BC704780B483B08A
:1038080000AF786000BF0C37BD4680BC704780B4FD
:1038180083B000AF786000BF0C37BD4680BC7047EE
:1038280080B485B000AF786039600023FB73002353
:10383800BB607B6893F82430012B01D10223DCE0C4
:103848007B68012283F824203B685B68062B1CD820
:103858007B681B68596B3B685A6813469B00134486
:10386800053B1F2202FA03F3DB4319403B68186843
:103878003B685A6813469B001344053B00FA03F261
:103888007B681B680A435A633CE03B685B680C2B07
:103898001CD87B681B68196B3B685A6813469B00E9
:1038A8001344233B1F2202FA03F3DB4319403B680E
:1038B80018683B685A6813469B001344233B00FA78
:1038C80003F27B681B680A431A631BE07B681B686A
:1038D800D96A3B685A6813469B001344413B1F2230
:1038E80002FA03F3DB4319403B6818683B685A68DF
:1038F80013469B001344413B00FA03F27B681B68A4
:103908000A43DA623B681B68092B1CD97B681B6871
:10391800D9683B681A6813465B0013441E3B0722AC
:1039280002FA03F3DB4319403B6898683B681A685E
:1039380013465B0013441E3B00FA03F27B681B68C6
:103948000A43DA6019E07B681B6819693B681A68E2
:1039580013465B001344072202FA03F3DB431940C2
:103968003B6898683B681A6813465B00134400FA82
:1039780003F27B681B680A431A613B681B68102BBB
:1039880003D03B681B68112B32D17B681B681D4A2A
:10399800934225D17B681B689B6803F40003002BC6
:1039A80026D17B681B689A687B681B6842F4000212
:1039B8009A603B681B68102B1AD1134B1B68134A7B
:1039C800A2FB03239A0C13469B0013445B00BB60C5
:1039D80002E0BB68013BBB60BB68002BF9D107E084
:1039E8007B689B6A43F020027B689A620123FB7321
:1039F8007B68002283F82420FB7B18461437BD46D9
:103A080080BC7047002401401800002083DE1B435F
:103A180080B584B000AF78600023FB600023BB60F2
:103A28007B681B689B6803F00103012B40D07B680F
:103A38001B689A687B681B6842F001029A601F4BFA
:103A48001B681F4AA2FB03239B0CBB6002E0BB68F8
:103A5800013BBB60BB68002BF9D1FFF711FCF86094
:103A68001FE0FFF70DFC0246FB68D31A022B18D99A
:103A78007B681B689B6803F00103012B11D07B68EE
:103A88009B6A43F010027B689A627B68DB6A43F0AA
:103A980001027B68DA627B68002283F82420012314
:103AA80007E07B681B689B6803F00103012BD8D1F2
:103AB800002318461037BD4680BD00BF18000020FF
:103AC80083DE1B4380B584B000AF78600023FB60C1
:103AD8007B681B689B6803F00103012B2ED17B6870
:103AE8001B689A687B681B6822F001029A60FFF7DE
:103AF800C7FBF8601BE0FFF7C3FB0246FB68D31A5D
:103B0800022B14D97B681B689B6803F00103012B07
:103B18000DD17B689B6A43F010027B689A627B68D0
:103B2800DB6A43F001027B68DA62012307E07B6805
:103B38001B689B6803F00103012BDCD000231846A7
:103B48001037BD4680BD80B584B000AF78607B6813
:103B58005B6AFB60FB689B6A03F05003002B27D16C
:103B6800FB689B6A43F40072FB689A62FB681B68F7
:103B78009B6803F46023B3F5602F15D1FB681B7BAA
:103B8800002B11D1FB689B6A23F48072FB689A6250
:103B9800FB689B6A03F48053002B05D1FB689B6A82
:103BA80043F00102FB689A62F868FEF763FF04E0DD
:103BB800FB681B6A1B6B7868984700BF1037BD46C7
:103BC80080BD80B584B000AF78607B685B6AFB60BD
:103BD800F868FFF70AFE00BF1037BD4680BD80B504
:103BE80084B000AF78607B685B6AFB60FB689B6AA7
:103BF80043F04002FB689A62FB68DB6A43F0040208
:103C0800FB68DA62F868FFF702FE00BF1037BD46AE
:103C180080BD000090B587B000AF78600023FB75C9
:103C28000023FB607B6893F82430012B01D1022329
:103C380097E07B68012283F824207868FFF742FF29
:103C48000346FB757868FFF7E3FE0346FB75FB7DCB
:103C5800002B40F081807B689B6A23F4885323F013
:103C6800020343F002027B689A62404B1C68022000
:103C780001F060FB0346B4FBF3F35B00FB6002E07A
:103C8800FB68013BFB60FB68002BF9D17B681B6874
:103C98009A687B681B6842F008029A60FFF7F0FA9E
:103CA80038611BE0FFF7ECFA02463B69D31A0A2B8E
:103CB80014D97B681B689B6803F00803002B0DD0A0
:103CC8007B689B6A23F0120343F010027B689A62B8
:103CD8007B68002283F82420012342E07B681B686C
:103CE8009B6803F00803002BDCD17B681B689A688B
:103CF8007B681B6842F004029A60FFF7C1FA3861DA
:103D08001BE0FFF7BDFA02463B69D31A0A2B14D908
:103D18007B681B689B6803F00403002B0DD07B684D
:103D28009B6A23F0120343F010027B689A627B6857
:103D3800002283F82420012313E07B681B689B681A
:103D480003F00403002BDCD17B689B6A23F0030398
:103D580043F001027B689A627B68002283F8242082
:103D6800FB7D18461C37BD4690BD00BF18000020DB
:103D780080B483B000AF786000BF0C37BD4680BC0C
:103D88007047000080B485B000AF78607B6803F0AE
:103D98000703FB600C4BDB68BB60BA684FF6FF0398
:103DA8001340BB60FB681A02BB68134343F0BF6350
:103DB80043F40033BB60044ABB68D36000BF1437C8
:103DC800BD4680BC704700BF00ED00E080B400AF86
:103DD800044BDB681B0A03F007031846BD4680BC8A
:103DE800704700BF00ED00E080B483B000AF034629
:103DF800FB7197F90730002B0BDBFB7903F01F02EF
:103E0800064997F907305B09012000FA02F241F8E8
:103E1800232000BF0C37BD4680BC704700E100E09E
:103E280080B483B000AF03463960FB7197F907305F
:103E3800002B0ADB3B68DAB20C4997F9073012010C
:103E4800D2B20B4483F800230AE03B68DAB208498F
:103E5800FB7903F00F03043B1201D2B20B441A762C
:103E680000BF0C37BD4680BC704700BF00E100E0D2
:103E780000ED00E080B489B000AFF860B9607A6006
:103E8800FB6803F00703FB61FB69C3F10703042B1D
:103E980028BF0423BB61FB690433062B02D9FB69E5
:103EA800033B00E000237B614FF0FF32BB6902FA5D
:103EB80003F3DA43BB681A407B699A404FF0FF313D
:103EC8007B6901FA03F3D9437B680B401343184617
:103ED8002437BD4680BC704780B582B000AF78609B
:103EE8007B68013BB3F1807F01D301230FE00A4ACD
:103EF8007B68013B53600F214FF0FF30FFF790FFC5
:103F0800054B00229A60044B07221A6000231846CA
:103F18000837BD4680BD00BF10E000E080B582B024
:103F280000AF78607868FFF72DFF00BF0837BD46FF
:103F380080BD80B586B000AF0346B9607A60FB7378
:103F480000237B61FFF742FF78617A68B968786976
:103F5800FFF790FF024697F90F3011461846FFF712
:103F68005FFF00BF1837BD4680BD80B582B000AF87
:103F78000346FB7197F907301846FFF735FF00BF76
:103F88000837BD4680BD80B582B000AF78607868DC
:103F9800FFF7A2FF034618460837BD4680BD00005C
:103FA80080B485B000AF78600023FB607B68002B8D
:103FB80001D1012359E07B681B681A462D4B9A42B0
:103FC8000FD87B681B681A462B4B13442B4AA2FB5D
:103FD80003231B099A007B681A647B68284ADA6302
:103FE8000EE07B681B681A46264B1344234AA2FB43
:103FF80003231B099A007B681A647B68224ADA63E8
:104008007B68022283F821207B681B681B68FB60A1
:10401800FB6823F47F5323F03003FB607B685A6806
:104028007B689B681A437B68DB681A437B681B695B
:104038001A437B685B691A437B689B691A437B68F0
:10404800DB691343FA681343FB607B681B68FA68F3
:104058001A607B6800229A637B68012283F821201A
:104068007B68002283F82020002318461437BD46B9
:1040780080BC704707040240F8FFFDBFCDCCCCCC14
:1040880000000240F8FBFDBF0004024080B586B086
:1040980000AFF860B9607A603B600023FB75FB688D
:1040A80093F82030012B01D102234BE0FB68012259
:1040B80083F82020FB6893F82130DBB2012B3AD13A
:1040C800FB68022283F82120FB6800229A63FB68C0
:1040D8001B681A68FB681B6822F001021A603B68BB
:1040E8007A68B968F86800F06DFAFB68DB6A002B3B
:1040F80008D0FB681B681A68FB681B6842F00E0250
:104108001A600FE0FB681B681A68FB681B6822F0DE
:1041180004021A60FB681B681A68FB681B6842F097
:104128000A021A60FB681B681A68FB681B6842F081
:1041380001021A6005E0FB68002283F820200223B0
:10414800FB75FB7D18461837BD4680BD80B584B029
:1041580000AF78607B68DB6B1B68FB607B681B6863
:104168001B68BB607B681B6C04229A40FB68134089
:10417800002B00F0F180BB6803F00403002B00F073
:10418800EB807B681B681B6803F02003002B07D1BA
:104198007B681B681A687B681B6822F004021A6037
:1041A8007B681B681A465F4B9A4258D97B681B6824
:1041B8005D4A93424FD07B681B685C4A934248D063
:1041C8007B681B685A4A934240D07B681B68594AEF
:1041D800934238D07B681B68574A934230D07B683B
:1041E8001B68564A934228D07B681B684D4A934205
:1041F80020D07B681B68524A934219D07B681B68A1
:10420800504A934212D07B681B684F4A93420AD0A7
:104218007B681B684D4A934202D14FF480431BE0F0
:104228004FF4802318E04FF4806315E0402313E037
:10423800042311E04FF080630EE04FF480030BE09D
:104248004FF4802308E04FF4804305E04FF4806387
:1042580002E0402300E004233D4A536057E07B68B6
:104268001B68314A93424FD07B681B682F4A9342A0
:1042780048D07B681B682E4A934240D07B681B68F5
:104288002C4A934238D07B681B682B4A934230D023
:104298007B681B68294A934228D07B681B68214A9F
:1042A800934220D07B681B68254A934219D07B68CB
:1042B8001B68244A934212D07B681B68224A9342A7
:1042C8000AD07B681B68214A934202D14FF480438D
:1042D8001BE04FF4802318E04FF4806315E040237F
:1042E80013E0042311E04FF080630EE04FF48003E5
:1042F8000BE04FF4802308E04FF4804305E04FF4CF
:10430800806302E0402300E00423124A53607B6884
:10431800DB6A002B00F036817B68DB6A7868984797
:1043280030E100BF80000240080002401C0002404B
:104338003000024044000240580002406C00024035
:10434800080402401C0402403004024044040240B5
:1043580000040240000002407B681B6C02229A4065
:10436800FB681340002B00F0DD80BB6803F00203FC
:10437800002B00F0D7807B681B681B6803F02003C4
:10438800002B0BD17B681B681A687B681B6822F0BE
:104398000A021A607B68012283F821207B681B6867
:1043A8001A467B4B9A4258D97B681B68794A9342D4
:1043B8004FD07B681B68784A934248D07B681B685B
:1043C800764A934240D07B681B68754A934238D03E
:1043D8007B681B68734A934230D07B681B68724ABB
:1043E800934228D07B681B68694A934220D07B6837
:1043F8001B686E4A934219D07B681B686C4A9342CB
:1044080012D07B681B686B4A93420AD07B681B6892
:10441800694A934202D14FF400531BE04FF4003332
:1044280018E04FF4007315E0202313E0022311E095
:104438004FF000730EE04FF400130BE04FF400331D
:1044480008E04FF4005305E04FF4007302E0202326
:1044580000E00223594A536057E07B681B684D4AC5
:1044680093424FD07B681B684B4A934248D07B6885
:104478001B684A4A934240D07B681B68484A93426B
:1044880038D07B681B68474A934230D07B681B68EA
:10449800454A934228D07B681B683D4A934220D006
:1044A8007B681B68414A934219D07B681B68404A65
:1044B800934212D07B681B683E4A93420AD07B68BD
:1044C8001B683D4A934202D14FF400531BE04FF45E
:1044D800003318E04FF4007315E0202313E00223A3
:1044E80011E04FF000730EE04FF400130BE04FF4AF
:1044F800003308E04FF4005305E04FF4007302E086
:10450800202300E002232E4A53607B68002283F8B0
:1045180020207B689B6A002B34D07B689B6A786874
:1045280098472FE07B681B6C08229A40FB68134071
:10453800002B28D0BB6803F00803002B23D07B682E
:104548001B681A687B681B6822F00E021A607B6879
:104558001A6C7B68DB6B012101FA02F25A607B68F6
:1045680001229A637B68012283F821207B6800225C
:1045780083F820207B681B6B002B04D07B681B6BA7
:104588007868984700BF00BF1037BD4680BD00BFA0
:1045980080000240080002401C0002403000024037
:1045A80044000240580002406C00024008040240E7
:1045B8001C0402403004024044040240000402404B
:1045C8000000024080B485B000AFF860B9607A603E
:1045D8003B60FB681A6CFB68DB6B012101FA02F295
:1045E8005A60FB681B683A685A60FB685B68102B66
:1045F80008D1FB681B687A689A60FB681B68BA6810
:10460800DA6007E0FB681B68BA689A60FB681B6899
:104618007A68DA6000BF1437BD4680BC7047000076
:1046280080B48BB000AF7860396000237B620023D0
:104638003B6279E101227B6A02FA03F3FB613B6882
:104648001B68FA691340BB61BA69FB699A4240F07A
:1046580068813B685B68964A93425ED0944A93426D
:1046680075D8944A934258D0924A93426FD8924A46
:10467800934252D0904A934269D8904A93424CD080
:104688008E4A934263D88E4A934246D08C4A9342CC
:104698005DD8122B2AD8122B59D801A252F823F030
:1046A80023470008FD4600080F4700085147000847
:1046B800574700085747000857470008574700085A
:1046C800574700085747000857470008574700084A
:1046D800574700085747000857470008574700083A
:1046E800574700080547000819470008754A9342CC
:1046F80013D02CE03B68DB683B6229E03B68DB6851
:1047080004333B6224E03B68DB6808333B621FE00C
:104718003B68DB680C333B621AE03B689B68002B04
:1047280002D104233B6213E03B689B68012B05D14F
:1047380008233B627B68FA691A6109E008233B6237
:104748007B68FA695A6103E000233B6200E000BF1E
:10475800BB69FF2B01D87B6801E07B6804337B6170
:10476800BB69FF2B02D87B6A9B0002E07B6A083B8F
:104778009B003B617B691A680F213B6901FA03F3CF
:10478800DB431A40396A3B6901FA03F31A437B6930
:104798001A603B685B6803F08053002B00F0C1800F
:1047A800494B9B69484A43F001039361464B9B6917
:1047B80003F00103BB60BB68444A7B6A9B08023371
:1047C80052F82330FB607B6A03F003039B000F223F
:1047D80002FA03F3DB43FA681340FB607B683C4A48
:1047E80093421FD07B683B4A934219D07B683A4A70
:1047F800934213D07B68394A93420DD07B68384A7C
:10480800934207D07B68374A934201D105230AE0D7
:10481800062308E0042306E0032304E0022302E061
:10482800012300E000237A6A02F003029200934019
:10483800FA681343FB6025497B6A9B080233FA68D0
:1048480041F823203B685B6803F48013002B06D0F3
:10485800254B9A682449BB6913438B6006E0224BB9
:104868009A68BB69DB43204913408B603B685B68EF
:1048780003F40013002B06D01B4BDA681A49BB69F6
:104888001343CB6006E0184BDA68BB69DB43164973
:104898001340CB603B685B6803F40033002B25D0E2
:1048A800114B5A681049BB6913434B6025E000BFA0
:1048B800000032100000311000002210000021100A
:1048C800000012100000111000100240000001400A
:1048D80000080140000C0140001001400014014094
:1048E80000180140001C014000040140154B5A68A3
:1048F800BB69DB43134913404B603B685B6803F4B7
:104908008033002B06D00F4B1A680E49BB6913433E
:104918000B6006E00B4B1A68BB69DB43094913407F
:104928000B607B6A01337B623B681A687B6A22FAF8
:1049380003F3002B7FF47EAE00BF00BF2C37BD46CB
:1049480080BC70470004014080B485B000AF786037
:104958000B467B807B689A687B881340002B02D0CB
:104968000123FB7301E00023FB73FB7B184614371C
:10497800BD4680BC704780B483B000AF78600B46FA
:104988007B8013467B707B78002B03D07A887B680A
:104998001A6103E07B881A047B681A6100BF0C3730
:1049A800BD4680BC7047000080B586B000AF786017
:1049B8007B68002B01D1012372E27B681B6803F03E
:1049C8000103002B00F08780924B5B6803F00C0317
:1049D800042B0CD08F4B5B6803F00C03082B12D10F
:1049E8008C4B5B6803F48033B3F5803F0BD1894B64
:1049F8001B6803F40033002B6CD07B685B68002BCA
:104A080068D101234CE27B685B68B3F5803F06D12F
:104A1800804B1B687F4A43F4803313602EE07B6829
:104A28005B68002B0CD17B4B1B687A4A23F48033DC
:104A38001360784B1B68774A23F4802313601DE0CA
:104A48007B685B68B3F5A02F0CD1724B1B68714A69
:104A580043F4802313606F4B1B686E4A43F4803322
:104A680013600BE06B4B1B686A4A23F480331360B6
:104A7800684B1B68674A23F4802313607B685B6874
:104A8800002B13D0FEF7FCFB386108E0FEF7F8FBBB
:104A980002463B69D31A642B01D9032300E25D4B1C
:104AA8001B6803F40033002BF0D014E0FEF7E8FB9A
:104AB800386108E0FEF7E4FB02463B69D31A642B31
:104AC80001D90323ECE1534B1B6803F40033002B9B
:104AD800F0D100E000BF7B681B6803F00203002BE5
:104AE80063D04C4B5B6803F00C03002B0BD0494B95
:104AF8005B6803F00C03082B1CD1464B5B6803F47E
:104B08008033002B16D1434B1B6803F00203002BA4
:104B180005D07B681B69012B01D00123C0E13D4B07
:104B28001B6823F0F8027B685B69DB003949134393
:104B38000B603AE07B681B69002B20D0364B0122C2
:104B48001A60FEF79DFB386108E0FEF799FB024604
:104B58003B69D31A022B01D90323A1E12D4B1B6812
:104B680003F00203002BF0D02A4B1B6823F0F80255
:104B78007B685B69DB00274913430B6015E0264B14
:104B880000221A60FEF77CFB386108E0FEF778FB2C
:104B980002463B69D31A022B01D9032380E11D4B3E
:104BA8001B6803F00203002BF0D17B681B6803F03D
:104BB8000803002B3AD07B689B69002B19D0174B50
:104BC80001221A60FEF75CFB386108E0FEF758FB2B
:104BD80002463B69D31A022B01D9032360E10D4B2E
:104BE8005B6A03F00203002BF0D0012000F0CEFA3C
:104BF8001CE00A4B00221A60FEF742FB38610FE006
:104C0800FEF73EFB02463B69D31A022B08D9032361
:104C180046E100BF001002400000424280044242C8
:104C2800924B5B6A03F00203002BE9D17B681B6897
:104C380003F00403002B00F0A6800023FB758B4BC8
:104C4800DB6903F08053002B0DD1884BDB69874A61
:104C580043F08053D361854BDB6903F08053BB601D
:104C6800BB680123FB75824B1B6803F48073002B20
:104C780018D17F4B1B687E4A43F480731360FEF79C
:104C8800FFFA386108E0FEF7FBFA02463B69D31ADF
:104C9800642B01D9032303E1754B1B6803F480736C
:104CA800002BF0D07B68DB68012B06D16F4B1B6AA9
:104CB8006E4A43F0010313622DE07B68DB68002B2A
:104CC8000CD16A4B1B6A694A23F001031362674BD4
:104CD8001B6A664A23F0040313621CE07B68DB68E6
:104CE800052B0CD1614B1B6A604A43F00403136225
:104CF8005E4B1B6A5D4A43F0010313620BE05B4B9A
:104D08001B6A5A4A23F001031362584B1B6A574A1D
:104D180023F0040313627B68DB68002B15D0FEF7D1
:104D2800AFFA38610AE0FEF7ABFA02463B69D31ADC
:104D380041F28832934201D90323B1E04B4B1B6AFD
:104D480003F00203002BEED014E0FEF799FA386165
:104D58000AE0FEF795FA02463B69D31A41F2883217
:104D6800934201D903239BE0404B1B6A03F00203E3
:104D7800002BEED1FB7D012B05D13C4BDB693B4A77
:104D880023F08053D3617B68DB69002B00F08780B8
:104D9800364B5B6803F00C03082B61D07B68DB693A
:104DA800022B46D1334B00221A60FEF769FA3861AC
:104DB80008E0FEF765FA02463B69D31A022B01D9CF
:104DC80003236DE0294B1B6803F00073002BF0D11F
:104DD8007B681B6AB3F5803F08D1244B5B6823F4DA
:104DE80000327B689B68214913434B601F4B5B680B
:104DF80023F474127B68196A7B685B6A0B431B494E
:104E080013434B601B4B01221A60FEF739FA3861D5
:104E180008E0FEF735FA02463B69D31A022B01D99E
:104E280003233DE0114B1B6803F00073002BF0D007
:104E380035E0104B00221A60FEF722FA386108E0CC
:104E4800FEF71EFA02463B69D31A022B01D9032347
:104E580026E0064B1B6803F00073002BF0D11EE020
:104E68007B68DB69012B07D1012319E000100240A0
:104E780000700040600042420B4B5B68FB60FB68BF
:104E880003F480327B681B6A9A4206D1FB6803F4FC
:104E980070127B685B6A9A4201D0012300E000230C
:104EA80018461837BD4680BD0010024080B584B052
:104EB80000AF786039607B68002B01D10123D0E016
:104EC8006A4B1B6803F007033A689A4210D9674B8C
:104ED8001B6823F0070265493B6813430B60634B6B
:104EE8001B6803F007033A689A4201D00123B8E02F
:104EF8007B681B6803F00203002B20D07B681B68CB
:104F080003F00403002B05D0594B5B68584A43F45F
:104F1800E06353607B681B6803F00803002B05D02F
:104F2800534B5B68524A43F460535360504B5B6881
:104F380023F0F0027B689B684D4913434B607B6804
:104F48001B6803F00103002B40D07B685B68012BD2
:104F580007D1474B1B6803F40033002B15D10123FD
:104F68007FE07B685B68022B07D1414B1B6803F02D
:104F78000073002B09D1012373E03D4B1B6803F03C
:104F88000203002B01D101236BE0394B5B6823F04E
:104F980003027B685B68364913434B60FEF770F980
:104FA800F8600AE0FEF76CF90246FB68D31A41F292
:104FB8008832934201D9032353E02D4B5B6803F0F9
:104FC8000C027B685B689B009A42EBD1274B1B68FD
:104FD80003F007033A689A4210D2244B1B6823F067
:104FE800070222493B6813430B60204B1B6803F000
:104FF80007033A689A4201D0012332E07B681B68B4
:1050080003F00403002B08D0194B5B6823F4E0621B
:105018007B68DB68164913434B607B681B6803F0A9
:105028000803002B09D0124B5B6823F460527B689D
:105038001B69DB000E4913434B6000F021F8024660
:105048000B4B5B681B0903F00F030A49CB5C22FA80
:1050580003F3094A1360094B1B681846FEF7CEF89C
:10506800002318461037BD4680BD00BF002002400F
:105078000010024070A20008180000201C00002048
:1050880080B487B000AF0023FB600023BB6000231F
:105098007B6100237B6000233B611E4B5B68FB60E8
:1050A800FB6803F00C03042B02D0082B03D027E085
:1050B800194B3B6127E0FB689B0C03F00F03174A71
:1050C800D35C7B60FB6803F48033002B10D0114B5A
:1050D8005B685B0C03F00103114AD35CBB607B681F
:1050E8000D4A03FB02F2BB68B2FBF3F37B6104E0F9
:1050F8007B680C4A02FB03F37B617B693B6102E03E
:10510800054B3B6100BF3B6918461C37BD4680BC58
:10511800704700BF0010024000127A0088A2000801
:1051280098A2000800093D0080B400AF024B1B683C
:105138001846BD4680BC70471800002080B500AFF7
:10514800FFF7F2FF0246054B5B681B0A03F00703F3
:105158000349CB5C22FA03F3184680BD00100240D5
:1051680080A2000880B500AFFFF7DEFF0246054BBE
:105178005B68DB0A03F007030349CB5C22FA03F3FD
:10518800184680BD0010024080A2000880B485B097
:1051980000AF78600A4B1B680A4AA2FB03235B0A2C
:1051A8007A6802FB03F3FB6000BFFB685A1EFA60D3
:1051B800002BF9D100BF00BF1437BD4680BC704733
:1051C80018000020D34D621080B586B000AF78601B
:1051D80000233B610023FB607B681B6803F001032D
:1051E800002B7DD00023FB754F4BDB6903F0805308
:1051F800002B0DD14C4BDB694B4A43F08053D361F4
:10520800494BDB6903F08053BB60BB680123FB7526
:10521800464B1B6803F48073002B18D1434B1B6863
:10522800424A43F480731360FEF72AF8386108E0B5
:10523800FEF726F802463B69D31A642B01D90323EB
:105248006DE03A4B1B6803F48073002BF0D0364BAB
:105258001B6A03F44073FB60FB68002B2ED07B684D
:105268005B6803F44073FA689A4227D02E4B1B6A96
:1052780023F44073FB602E4B01221A602C4B002252
:105288001A60294AFB681362FB6803F00103002BCC
:1052980014D0FDF7F5FF38610AE0FDF7F1FF02468B
:1052A8003B69D31A41F28832934201D9032336E08D
:1052B8001D4B1B6A03F00203002BEED01A4B1B6A2E
:1052C80023F440727B685B68174913430B62FB7DCC
:1052D800012B05D1144BDB69134A23F08053D361AA
:1052E8007B681B6803F00203002B08D00E4B5B6839
:1052F80023F440427B689B680B4913434B607B68EF
:105308001B6803F01003002B08D0074B5B6823F4DD
:1053180080027B685B69044913434B60002318468D
:105328001837BD4680BD00BF001002400070004025
:105338004004424280B588B000AF786000237B61AA
:105348000023FB6100233B610023FB600023BB615A
:105358007B68013B0F2B00F2AF8001A252F823F0CB
:105368003F540008A5540008C15400082F540008F1
:10537800C1540008C1540008C1540008375400083B
:10538800C1540008C1540008C1540008C1540008A1
:10539800C1540008C1540008C1540008A9530008AA
:1053A8004A4B5B68FB60494B1B6803F08073002B1A
:1053B80000F08480FB689B0C03F00F03444AD35C25
:1053C8003B61FB6803F48033002B15D03F4B5B68CF
:1053D8005B0C03F001033F4AD35C7B61FB6803F479
:1053E8008033002B0DD03C4A7B69B2FBF3F23B695A
:1053F80002FB03F3FB6104E03B69384A02FB03F359
:10540800FB61324B5B6803F48003B3F5800F02D174
:10541800FB69BB6152E0FB695B00314AA2FB0323D5
:105428005B08BB614AE0FFF72BFEB86149E0FFF774
:1054380027FEB86145E0254B1B6AFB60FB6803F457
:105448004073B3F5807F08D1FB6803F00203002B9B
:1054580003D04FF40043BB611FE0FB6803F44073C3
:10546800B3F5007F09D1194B5B6A03F00203002BE7
:1054780003D049F64043BB610FE0FB6803F4407377
:10548800B3F5407F1CD1114B1B6803F40033002B8C
:1054980016D04FF22443BB6112E011E0FFF762FE21
:1054A80002460A4B5B689B0B03F0030301335B0066
:1054B800B2FBF3F3BB6104E000BF02E000BF00E011
:1054C80000BFBB6918462037BD4680BD00100240AA
:1054D8009CA20008ACA2000800127A0000093D0056
:1054E800ABAAAAAA80B485B000AF78607B6893F8AD
:1054F8003D30DBB2012B01D001233CE07B68022266
:1055080083F83D207B681B681D4A934218D07B684E
:105518001B681C4A934213D07B681B68B3F1804F09
:105528000ED07B681B68184A934209D07B681B68B9
:10553800164A934204D07B681B68154A934211D1DE
:105548007B681B689B6803F00703FB60FB68062BFE
:1055580010D07B681B681A687B681B6842F00102E0
:105568001A6007E07B681B681A687B681B6842F052
:1055780001021A60002318461437BD4680BC7047E4
:10558800002C0140003401400004004000080040A5
:10559800000C004080B584B000AF786039603B688B
:1055A800002B09D17B6893F83E30DBB2012B14BF86
:1055B80001230023DBB222E03B68042B09D17B687E
:1055C80093F83F30DBB2012B14BF01230023DBB279
:1055D80015E03B68082B09D17B6893F84030DBB2B3
:1055E800012B14BF01230023DBB208E07B6893F88A
:1055F8004130DBB2012B14BF01230023DBB2002BA7
:1056080001D0012372E03B68002B04D17B680222A1
:1056180083F83E2013E03B68042B04D17B68022208
:1056280083F83F200BE03B68082B04D17B680222FB
:1056380083F8402003E07B68022283F841207B68DE
:105648001B6801223968184600F0B8FC7B681B68A3
:10565800284A934204D07B681B68274A934201D1A9
:10566800012300E00023002B07D07B681B685A6CDD
:105678007B681B6842F400425A647B681B681D4AB9
:10568800934218D07B681B681B4A934213D07B68EF
:105698001B68B3F1804F0ED07B681B68174A934292
:1056A80009D07B681B68164A934204D07B681B6844
:1056B800144A934211D17B681B689B6803F0070367
:1056C800FB60FB68062B10D07B681B681A687B6838
:1056D8001B6842F001021A6007E07B681B681A68C1
:1056E8007B681B6842F001021A60002318461037D5
:1056F800BD4680BD002C014000340140000400403C
:1057080000080040000C004080B582B000AF78600F
:105718007B68002B01D1012341E07B6893F83D3081
:10572800DBB2002B06D17B68002283F83C20786826
:10573800FDF792FB7B68022283F83D207B681A689C
:105748007B6804331946104600F006FA7B6801228C
:1057580083F846207B68012283F83E207B6801227B
:1057680083F83F207B68012283F840207B68012270
:1057780083F841207B68012283F842207B6801225C
:1057880083F843207B68012283F844207B68012248
:1057980083F845207B68012283F83D2000231846C2
:1057A8000837BD4680BD000080B584B000AF786082
:1057B80039603B68002B09D17B6893F83E30DBB237
:1057C800012B14BF01230023DBB222E03B68042B2A
:1057D80009D17B6893F83F30DBB2012B14BF01235A
:1057E8000023DBB215E03B68082B09D17B6893F8EE
:1057F8004030DBB2012B14BF01230023DBB208E0E9
:105808007B6893F84130DBB2012B14BF01230023DE
:10581800DBB2002B01D0012372E03B68002B04D1DE
:105828007B68022283F83E2013E03B68042B04D1F6
:105838007B68022283F83F200BE03B68082B04D1E9
:105848007B68022283F8402003E07B68022283F809
:1058580041207B681B6801223968184600F0AEFBBE
:105868007B681B68284A934204D07B681B68274AD8
:10587800934201D1012300E00023002B07D07B686D
:105888001B685A6C7B681B6842F400425A647B6848
:105898001B681D4A934218D07B681B681B4A9342B9
:1058A80013D07B681B68B3F1804F0ED07B681B68F0
:1058B800174A934209D07B681B68164A934204D062
:1058C8007B681B68144A934211D17B681B689B68EC
:1058D80003F00703FB60FB68062B10D07B681B688E
:1058E8001A687B681B6842F001021A6007E07B684F
:1058F8001B681A687B681B6842F001021A60002363
:1059080018461037BD4680BD002C014000340140C8
:105918000004004000080040000C004080B586B03C
:1059280000AFF860B9607A600023FB75FB6893F8F4
:105938003C30012B01D1022348E0FB68012283F8A7
:105948003C207B680C2B39D801A252F823F000BF09
:105958008D590008C5590008C5590008C5590008DF
:105968009B590008C5590008C5590008C5590008C1
:10597800A9590008C5590008C5590008C5590008A3
:10598800B7590008FB681B68B968184600F06AF93F
:1059980017E0FB681B68B968184600F0D3F910E0F7
:1059A800FB681B68B968184600F040FA09E0FB6814
:1059B8001B68B968184600F0ADFA02E00123FB75D0
:1059C80000BFFB68002283F83C20FB7D184618378F
:1059D800BD4680BD80B586B000AFF860B9607A601A
:1059E8000023FB75FB6893F83C30012B01D102239F
:1059F800AEE0FB68012283F83C207B680C2B00F2A8
:105A08009F8001A252F823F0455A0008495B00081C
:105A1800495B0008495B0008855A0008495B000893
:105A2800495B0008495B0008C75A0008495B000841
:105A3800495B0008495B0008075B0008FB681B68B6
:105A4800B968184600F00EF9FB681B689A69FB688C
:105A58001B6842F008029A61FB681B689A69FB6838
:105A68001B6822F004029A61FB681B689969BB688D
:105A78001A69FB681B680A439A6164E0FB681B6843
:105A8800B968184600F05EF9FB681B689A69FB68FC
:105A98001B6842F400629A61FB681B689A69FB689C
:105AA8001B6822F480629A61FB681B689969BB686D
:105AB8001B691A02FB681B680A439A6143E0FB688A
:105AC8001B68B968184600F0B1F9FB681B68DA6909
