:020000040800F2
:1000000000000120ED1B0008211A0008271A000833
:100010002D1A0008331A0008391A000800000000E1
:100020000000000000000000000000003F1A00086F
:100030004B1A000800000000571A0008631A000855
:10004000351C0008351C0008351C0008351C00084C
:10005000351C0008351C0008351C0008351C00083C
:10006000351C0008351C0008351C0008351C00082C
:10007000351C0008351C0008351C0008351C00081C
:10008000351C0008351C0008351C0008351C00080C
:10009000351C0008351C0008351C0008351C0008FC
:1000A000351C0008351C0008351C0008351C0008EC
:1000B000351C0008351C0008351C0008351C0008DC
:1000C000351C0008351C0008351C0008351C0008CC
:1000D000351C0008351C0008351C0008351C0008BC
:1000E000351C0008351C0008351C0008351C0008AC
:1000F000351C0008351C0008351C0008711A000862
:10010000351C0008351C0008351C0008351C00088B
:10011000351C0008351C0008351C0008351C00087B
:10012000351C0008351C0008351C0008851A00081D
:1001300000000000000000000000000000000000BF
:1001400000000000000000000000000000000000AF
:10015000000000000000000000000000000000009F
:10016000000000000000000000000000000000008F
:10017000000000000000000000000000000000007F
:10018000000000000000000000000000000000006F
:10019000000000000000000000000000000000005F
:1001A000000000000000000000000000000000004F
:1001B000000000000000000000000000000000003F
:1001C000000000000000000000000000000000002F
:1001D000000000000000000000000000000000001F
:0401E0005FF8E0F1F3
:1001E80010B5054C237833B9044B13B10448AFF369
:1001F80000800123237010BDD401002000000000FE
:10020800B478000808B5034B1BB103490348AFF3A2
:10021800008008BD00000000D8010020B478000864
:10022800034613F8012B002AFBD1181A013870472E
:1002380081F0004102E000BF83F0004330B54FEA8F
:1002480041044FEA430594EA050F08BF90EA020FFC
:100258001FBF54EA000C55EA020C7FEA645C7FEA8F
:10026800655C00F0E2804FEA5454D4EB5555B8BFB2
:100278006D420CDD2C4480EA020281EA030382EA23
:10028800000083EA010180EA020281EA0303362DB5
:1002980088BF30BD11F0004F4FEA01314FF4801C88
:1002A8004CEA113102D0404261EB410113F0004F9A
:1002B8004FEA03334CEA133302D0524263EB430351
:1002C80094EA050F00F0A780A4F10104D5F1200EEF
:1002D8000DDB02FA0EFC22FA05F2801841F100014A
:1002E80003FA0EF2801843FA05F359410EE0A5F11E
:1002F80020050EF1200E012A03FA0EFC28BF4CF04F
:10030800020C43FA05F3C01851EBE37101F0004504
:1003180007D54FF0000EDCF1000C7EEB00006EEB11
:100328000101B1F5801F1BD3B1F5001F0CD349089B
:100338005FEA30004FEA3C0C04F101044FEA4452F2
:1003480012F5800F80F09A80BCF1004F08BF5FEA79
:10035800500C50F1000041EB045141EA050130BD59
:100368005FEA4C0C404141EB0101013C28BFB1F56B
:10037800801FE9D291F0000F04BF01460020B1FAB6
:1003880081F308BF2033A3F10B03B3F120020CDA89
:100398000C3208DD02F1140CC2F10C0201FA0CF067
:1003A80021FA02F10CE002F11402D8BFC2F1200CCC
:1003B80001FA02F120FA0CFCDCBF41EA0C01904082
:1003C800E41AA2BF01EB0451294330BD6FEA0404CB
:1003D8001F3C1CDA0C340EDC04F11404C4F12002B6
:1003E80020FA04F001FA02F340EA030021FA04F3C8
:1003F80045EA030130BDC4F10C04C4F1200220FA1F
:1004080002F001FA04F340EA0300294630BD21FA5C
:1004180004F0294630BD94F0000F83F4801306BF22
:1004280081F480110134013D4EE77FEA645C18BF16
:100438007FEA655C29D094EA050F08BF90EA020FAD
:1004480005D054EA000C04BF1946104630BD91EAA5
:10045800030F1EBF0021002030BD5FEA545C05D1A8
:100468004000494128BF41F0004130BD14F58004E7
:100478003CBF01F5801130BD01F0004545F0FE415B
:1004880041F470014FF0000030BD7FEA645C1ABF90
:10049800194610467FEA655C1CBF0B46024650EAC7
:1004A800013406BF52EA033591EA030F41F40021F3
:1004B80030BD00BF90F0000F04BF0021704730B579
:1004C8004FF4806404F132044FF000054FF000014E
:1004D80050E700BF90F0000F04BF0021704730B50F
:1004E8004FF4806404F1320410F0004548BF4042E4
:1004F8004FF000013EE700BF42004FEAE2014FEA39
:1005080031014FEA02701FBF12F07F4393F07F4F13
:1005180081F06051704732F07F4208BF704793F016
:100528007F4F04BF41F40021704730B54FF4607429
:1005380001F0004521F000411CE700BF50EA01022C
:1005480008BF704730B54FF000050AE050EA0102D5
:1005580008BF704730B511F0004502D5404261EB45
:1005680041014FF4806404F132045FEA915C3FF486
:10057800D8AE4FF003025FEADC0C18BF03325FEA23
:10058800DC0C18BF033202EBDC02C2F1200300FAD4
:1005980003FC20FA02F001FA03FE40EA0E0021FAF9
:1005A80002F11444BDE600BF70B54FF0FF0C4CF4E7
:1005B800E06C1CEA11541DBF1CEA135594EA0C0F99
:1005C80095EA0C0F00F0DEF82C4481EA030621EAD4
:1005D8004C5123EA4C5350EA013518BF52EA03350F
:1005E80041F4801143F4801338D0A0FB02CE4FF0C1
:1005F8000005E1FB02E506F00042E0FB03E54FF0F1
:100608000006E1FB03569CF0000F18BF4EF0010EE8
:10061800A4F1FF04B6F5007F64F5407404D25FEAE4
:100628004E0E6D4146EB060642EAC62141EA555197
:100638004FEAC52040EA5E504FEACE2EB4F1FD0CD9
:1006480088BFBCF5E06F1ED8BEF1004F08BF5FEA57
:10065800500E50F1000041EB045170BD06F0004609
:1006680046EA010140EA020081EA0301B4EB5C04B6
:10067800C2BFD4EB0C0541EA045170BD41F48011AE
:100688004FF0000E013C00F3AB8014F1360FDEBFD3
:10069800002001F0004170BDC4F10004203C35DAAF
:1006A8000C341BDC04F11404C4F1200500FA05F332
:1006B80020FA04F001FA05F240EA020001F00042D3
:1006C80021F0004110EBD37021FA04F642EB060149
:1006D8005EEA430E08BF20EAD37070BDC4F10C0473
:1006E800C4F1200500FA04F320FA05F001FA04F237
:1006F80040EA020001F0004110EBD37041F1000123
:100708005EEA430E08BF20EAD37070BDC4F120052D
:1007180000FA05F24EEA020E20FA04F301FA05F295
:1007280043EA020321FA04F001F0004121FA04F23D
:1007380020EA020000EBD3705EEA430E08BF20EA0D
:10074800D37070BD94F0000F0FD101F00046400047
:1007580041EB010111F4801F08BF013CF7D041EAC9
:10076800060195F0000F18BF704703F000465200CD
:1007780043EB030313F4801F08BF013DF7D043EA9E
:100788000603704794EA0C0F0CEA135518BF95EA54
:100798000C0F0CD050EA410618BF52EA4306D1D1DB
:1007A80081EA030101F000414FF0000070BD50EAFA
:1007B800410606BF1046194652EA430619D094EA84
:1007C8000C0F02D150EA013613D195EA0C0F05D16E
:1007D80052EA03361CBF104619460AD181EA0301C2
:1007E80001F0004141F0FE4141F470014FF000007A
:1007F80070BD41F0FE4141F4780170BD70B54FF015
:10080800FF0C4CF4E06C1CEA11541DBF1CEA135594
:1008180094EA0C0F95EA0C0F00F0A7F8A4EB050476
:1008280081EA030E52EA03354FEA013100F088806D
:100838004FEA03334FF0805545EA131343EA126336
:100848004FEA022245EA111545EA10654FEA0026EB
:100858000EF000419D4208BF964244F1FD0404F5A4
:10086800407402D25B084FEA3202B61A65EB030500
:100878005B084FEA32024FF480104FF4002CB6EBBD
:10088800020E75EB030E22BFB61A754640EA0C003D
:100898005B084FEA3202B6EB020E75EB030E22BF7D
:1008A800B61A754640EA5C005B084FEA3202B6EBBE
:1008B800020E75EB030E22BFB61A754640EA9C007D
:1008C8005B084FEA3202B6EB020E75EB030E22BF4D
:1008D800B61A754640EADC0055EA060E18D04FEA0B
:1008E800051545EA16754FEA06164FEAC30343EAAB
:1008F80052734FEAC2025FEA1C1CC0D111F4801F78
:100908000BD141EA00014FF000004FF0004CB6E770
:1009180011F4801F04BF01430020B4F1FD0C88BF0F
:10092800BCF5E06F3FF6AFAEB5EB030C04BFB6EB1A
:10093800020C5FEA500C50F1000041EB045170BD0D
:100948000EF0004E4EEA113114EB5C04C2BFD4EB3A
:100958000C0541EA045170BD41F480114FF0000EBE
:10096800013C90E645EA060E8DE60CEA135594EA3A
:100978000C0F08BF95EA0C0F3FF43BAF94EA0C0F3D
:100988000AD150EA01347FF434AF95EA0C0F7FF4B2
:1009980025AF104619462CE795EA0C0F06D152EA06
:1009A80003353FF4FDAE1046194622E750EA4106EA
:1009B80018BF52EA43067FF4C5AE50EA41047FF4FB
:1009C8000DAF52EA43057FF4EBAE12E74FF0FF3C60
:1009D80006E000BF4FF0010C02E000BF4FF0010C31
:1009E8004DF804CD4FEA410C7FEA6C5C4FEA430CAA
:1009F80018BF7FEA6C5C1BD001B050EA410C0CBFF9
:100A080052EA430C91EA030F02BF90EA020F00205A
:100A1800704710F1000F91EA030F58BF994208BFC1
:100A280090422CBFD8176FEAE37040F0010070477E
:100A38004FEA410C7FEA6C5C02D150EA013C07D1D5
:100A48004FEA430C7FEA6C5CD6D152EA033CD3D020
:100A58005DF8040B704700BF8446104662468C461A
:100A68001946634600E000BF01B5FFF7B7FF00284D
:100A780048BF10F1000F01BD4DF808EDFFF7F4FF76
:100A88000CBF012000205DF808FB00BF4DF808ED01
:100A9800FFF7EAFF34BF012000205DF808FB00BF24
:100AA8004DF808EDFFF7E0FF94BF012000205DF846
:100AB80008FB00BF4DF808EDFFF7CEFF94BF0120FB
:100AC80000205DF808FB00BF4DF808EDFFF7C4FFF4
:100AD80034BF012000205DF808FB00BF4FEA410C3D
:100AE8007FEA6C5C02D150EA013C0AD14FEA430C20
:100AF8007FEA6C5C02D152EA033C02D14FF000005D
:100B080070474FF0010070474FEA410212F500129A
:100B180015D211D56FF47873B3EB625212D94FEA3C
:100B2800C12343F0004343EA505311F0004F23FA26
:100B380002F018BF404270474FF00000704750EA7B
:100B4800013005D111F0004008BF6FF00040704738
:100B58004FF00000704700BF80F0004002E000BF87
:100B680081F0004142001FBF5FEA410392EA030F90
:100B78007FEA226C7FEA236C6AD04FEA1262D2EBDA
:100B88001363C1BFD218414048404140B8BF5B42DF
:100B9800192B88BF704710F0004F40F4000020F078
:100BA8007F4018BF404211F0004F41F4000121F08E
:100BB8007F4118BF494292EA030F3FD0A2F10102D8
:100BC80041FA03FC10EB0C00C3F1200301FA03F116
:100BD80000F0004302D5494260EB4000B0F5000F39
:100BE80013D3B0F1807F06D340084FEA310102F1F8
:100BF8000102FE2A51D2B1F1004F40EBC25008BFAA
:100C080020F0010040EA03007047490040EB000073
:100C1800013A28BFB0F5000FEDD2B0FA80FCACF174
:100C2800080CB2EB0C0200FA0CF0AABF00EBC250A1
:100C380052421843BCBFD0401843704792F0000F8F
:100C480081F4000106BF80F400000132013BB5E7E2
:100C58004FEA41037FEA226C18BF7FEA236C21D058
:100C680092EA030F04D092F0000F08BF08467047BD
:100C780090EA010F1CBF0020704712F07F4F04D18B
:100C8800400028BF40F00040704712F100723CBF9E
:100C980000F50000704700F0004343F0FE4040F4C8
:100CA800000070477FEA226216BF08467FEA236386
:100CB8000146420206BF5FEA412390EA010F40F471
:100CC800800070474FF0000304E000BF10F00043BD
:100CD80048BF40425FEA000C08BF704743F09643A4
:100CE80001464FF000001CE050EA010208BF7047BF
:100CF8004FF000030AE000BF50EA010208BF704746
:100D080011F0004302D5404261EB41015FEA010C5A
:100D180002BF84460146002043F0B64308BFA3F152
:100D28008053A3F50003BCFA8CF2083AA3EBC25334
:100D380010DB01FA02FC634400FA02FCC2F1200253
:100D4800BCF1004F20FA02F243EB020008BF20F08A
:100D58000100704702F1200201FA02FCC2F12002F0
:100D680050EA4C0021FA02F243EB020008BF20EAE5
:100D7800DC7070474FF0FF0C1CEAD0521EBF1CEA13
:100D8800D15392EA0C0F93EA0C0F6FD01A4480EA01
:100D9800010C400218BF5FEA41211ED04FF00063EA
:100DA80043EA501043EA5111A0FB01310CF0004016
:100DB800B1F5000F3EBF490041EAD3715B0040EA3C
:100DC800010062F17F02FD2A1DD8B3F1004F40EB0C
:100DD800C25008BF20F00100704790F0000F0CF0DF
:100DE800004C08BF49024CEA502040EA51207F3AA3
:100DF800C2BFD2F1FF0340EAC250704740F400007E
:100E08004FF00003013A5DDC12F1190FDCBF00F06E
:100E180000407047C2F10002410021FA02F1C2F11C
:100E2800200200FA02FC5FEA310040F1000053EAB8
:100E38004C0308BF20EADC70704792F0000F00F006
:100E4800004C02BF400010F4000F013AF9D040EA0C
:100E58000C0093F0000F01F0004C02BF490011F4A0
:100E6800000F013BF9D041EA0C018FE70CEAD1539E
:100E780092EA0C0F18BF93EA0C0F0AD030F0004C1E
:100E880018BF31F0004CD8D180EA010000F00040D2
:100E9800704790F0000F17BF90F0004F084691F090
:100EA800000F91F0004F14D092EA0C0F01D14202CA
:100EB8000FD193EA0C0F03D14B0218BF084608D193
:100EC80080EA010000F0004040F0FE4040F40000DD
:100ED800704740F0FE4040F4400070474FF0FF0C70
:100EE8001CEAD0521EBF1CEAD15392EA0C0F93EAB7
:100EF8000C0F69D0A2EB030280EA010C49024FEA09
:100F0800402037D04FF0805343EA111143EA1013C1
:100F18000CF000408B4238BF5B0042F17D024FF479
:100F2800000C8B4224BF5B1A40EA0C00B3EB510F54
:100F380024BFA3EB510340EA5C00B3EB910F24BF3D
:100F4800A3EB910340EA9C00B3EBD10F24BFA3EBC2
:100F5800D10340EADC001B0118BF5FEA1C1CE0D18A
:100F6800FD2A3FF650AF8B4240EBC25008BF20F03D
:100F7800010070470CF0004C4CEA50207F32C2BF91
:100F8800D2F1FF0340EAC250704740F400004FF02E
:100F98000003013A37E792F0000F00F0004C02BF5F
:100FA800400010F4000F013AF9D040EA0C0093F029
:100FB800000F01F0004C02BF490011F4000F013B83
:100FC800F9D041EA0C0195E70CEAD15392EA0C0FEB
:100FD80008D142027FF47DAF93EA0C0F7FF470AF23
:100FE800084676E793EA0C0F04D14B023FF44CAF66
:100FF80008466EE730F0004C18BF31F0004CCAD1FB
:1010080030F000427FF45CAF31F000437FF43CAF36
:101018005FE700BF80B586B000AFF860B9607A605E
:10102800FB68012B02D0FB68022B11D17B689AB2B6
:101038004FF0FF33B968094803F04FFD0346FB75CD
:10104800FB7D002B01D17B6804E04FF0FF3301E00A
:101058004FF0FF3318461837BD4680BDAC0200205C
:1010680090B585B000AF00F03BFE03466433FB60EB
:1010780000BF394B1B78DBB2002B05D100F030FEE6
:101088000246FB689342F4D8334B1B78DBB2002B43
:101098005DD0314B00221A70304B1B889BB218462A
:1010A800FFF710FE03462E491846FFF763FE034676
:1010B8004FF08B411846FFF711FF0346BB60274BE3
:1010C8005B889BB21846FFF7FDFD03462449184686
:1010D800FFF750FE03464FF08B411846FFF7FEFE20
:1010E80003467B601F4B3B601F49B868FFF738FD1C
:1010F80003461C461D493868FFF73CFE034619465F
:101108002046FFF7EBFE03461A46194B1A601649AC
:101118007868FFF725FD03461C4614493868FFF731
:1011280029FE034619462046FFF7D8FE03461A460D
:10113800104B1A600E4B1B680E4A1268114618466F
:10114800FFF710FD034683F000430B4A136000BF0E
:101158001437BD4690BD00BFF8020020F4020020FD
:10116800333353400AD7233C3333D33F0000A041E5
:10117800FC02002000030020040300202DE9B043F6
:1011880084B004AF304B1B889BB219462E4B5B884A
:101198009BB21A462D4804F095FB2B4B1B889BB23B
:1011A8001846FFF78FFD034629491846FFF7E2FD69
:1011B80003464FF08B411846FFF790FE034618464A
:1011C800FFF79AF904460D461F4B5B889BB21846F9
:1011D800FFF778FD03461E491846FFF7CBFD034687
:1011E8004FF08B411846FFF779FE03461846FFF784
:1011F80083F902460B46CDE9002322462B461548C3
:1012080004F060FB144B1B681846FFF775F980461D
:101218008946124B1B681846FFF76EF904460D46BF
:101228000F4B1B681846FFF767F902460B46CDE9D6
:101238000223CDE9004542464B460A4804F042FBEA
:1012480000BFBD46BDE8B083F4020020D078000896
:1012580033335340E8780008FC02002000030020E4
:10126800040300200479000880B500AF00F0E0FC1A
:1012780000F064F800F014FA00F0F4F900F0BCF89B
:1012880000F00AF900F0C4F9214801F0F3F9034627
:10129800002B04D01F4804F07BFB00F063FA1E48C3
:1012A80004F076FB1D4804F073FB1D4802F032FE83
:1012B8000346002B04D01B4804F06AFB00F052FAE6
:1012C8000821174802F07EFE0346002B04D016487A
:1012D80004F05EFB00F046FA144804F059FB0222C1
:1012E80013490B4800F014FE0346002B04D01148A4
:1012F80004F04EFB00F036FA0F4804F049FBFFF704
:10130800AFFEFFF73BFF4FF4FA7000F0F3FCF6E78F
:10131800F00100202C790008487900086479000859
:101328006402002088790008A0790008C0790008C4
:10133800F4020020D8790008F079000880B596B04A
:1013480000AF07F1300328220021184604F000FC02
:1013580007F11C0300221A605A609A60DA601A6169
:101368003B1D00221A605A609A60DA601A615A615D
:1013780001233B634FF480337B630023BB6301236A
:101388003B640223FB644FF480333B654FF4E01366
:101398007B6507F13003184602F01EF80346002B60
:1013A80001D000F0DFF90F23FB6102233B62002329
:1013B8007B624FF48063BB620023FB6207F11C036E
:1013C8000221184602F08AFA0346002B01D000F0E9
:1013D800C9F902237B604FF40043FB603B1D1846AC
:1013E80002F00AFC0346002B01D000F0BBF900BF55
:1013F8005837BD4680BD000080B584B000AF3B1DA6
:1014080000221A605A609A60214B224A1A60204BC7
:101418004FF480729A601E4B01221A731C4B0022F3
:101428001A751B4B4FF48022DA61194B00225A605F
:10143800174B02221A61164800F080FC0346002B65
:1014480001D000F08FF904237B600123BB600723E0
:10145800FB603B1D19460E4800F012FF0346002BA7
:1014680001D000F07FF905237B600223BB600723CE
:10147800FB603B1D1946064800F002FF0346002B9F
:1014880001D000F06FF900BF1037BD4680BD00BF26
:10149800F0010020003C014080B598B000AF07F192
:1014A800580300221A605A6007F13C0300221A60B0
:1014B8005A609A60DA601A615A619A6107F11C03EE
:1014C80020220021184604F043FB4F4B4F4A1A6074
:1014D8004D4B00225A604C4B00229A604A4B4FF405
:1014E800FA62DA60484B00221A61474B00225A61BF
:1014F800454B00229A61444802F01EFE0346002B29
:1015080001D000F02FF90023BB650023FB6507F12C
:10151800580319463C4803F0D3F90346002B01D081
:1015280000F020F96023FB6300233B6400237B6405
:101538000023BB640023FB6400233B6500237B6519
:1015480007F13C03002219462F4802F0A1FE03468A
:10155800002B01D000F006F907F13C0304221946DC
:10156800294802F095FE0346002B01D000F0FAF856
:1015780007F13C0308221946234802F089FE034676
:10158800002B01D000F0EEF80023FB6100233B6242
:1015980000237B620023BB620023FB624FF40053ED
:1015A8003B630023BB6307F11C031946164803F08D
:1015B800F3F90346002B01D000F0D4F83B46002293
:1015C8001A605A609A60DA601A615A619A616023F7
:1015D8003B604FF47A737B600023BB6000233B6160
:1015E80000237B613B4608221946074802F0F4FDB8
:1015F8000346002B01D000F0B5F8034800F07AF953
:1016080000BF6037BD4680BD64020020002C014049
:1016180080B500AF114B124A1A60104B4FF4E132FB
:101628005A600E4B00229A600C4B0022DA600B4B7A
:1016380000221A61094B0C225A61084B00229A6158
:10164800064B0022DA61054803F0F7F90346002B40
:1016580001D000F087F800BF80BD00BFAC020020B9
:101668000044004080B582B000AF0C4B5B690B4A68
:1016780043F002035361094B5B6903F002037B608B
:101688007B68002200213B2001F083F93B2001F018
:101698009CF900BF0837BD4680BD00BF001002405E
:1016A80080B588B000AF07F1100300221A605A60B5
:1016B8009A60DA601E4B9B691D4A43F08003936170
:1016C8001B4B9B6903F08003FB60FB68184B9B690D
:1016D800174A43F004039361154B9B6903F0040315
:1016E800BB60BB68124B9B69114A43F0400393618E
:1016F8000F4B9B6903F040037B607B6800224FF42B
:1017080080710C4801F050FE4FF480733B61012357
:101718007B610023BB610223FB6107F110031946BB
:10172800044801F0ADFC00BF2037BD4680BD00BFB6
:10173800001002400018014080B483B000AF786008
:101748007B681B68054A934202D1054B01221A7037
:1017580000BF0C37BD4680BC704700BF003C01404D
:10176800F802002080B400AF72B600BFFEE70000A8
:1017780080B485B000AF154B9B69144A43F0010350
:101788009361124B9B6903F00103BB60BB680F4B6D
:10179800DB690E4A43F08053D3610C4BDB6903F0DD
:1017A80080537B607B680A4B5B68FB60FB6823F0B7
:1017B800E063FB60FB6843F00073FB60044AFB686E
:1017C800536000BF1437BD4680BC7047001002400C
:1017D8000000014080B588B000AF786007F11003C1
:1017E80000221A605A609A60DA607B681B682D4A8A
:1017F800934252D12C4B9B692B4A43F4004393618B
:10180800294B9B6903F40043FB60FB68264B9B69EB
:10181800254A43F080039361234B9B6903F08003BF
:10182800BB60BB68C0233B6103237B6107F11003E6
:1018380019461E4801F024FC1D4B1E4A1A601C4B19
:1018480000225A601A4B00229A60194B8022DA60F3
:10185800174B4FF480721A61154B4FF480625A612E
:10186800134B20229A61124B4FF44052DA61104810
:1018780001F0C6F80346002B01D0FFF773FF7B6821
:101888000B4A1A620A4A7B685362002200212F2001
:1018980001F07FF82F2001F098F800BF2037BD46EF
:1018A80080BD00BF003C014000100240001C014008
:1018B800200200205804024080B485B000AF786050
:1018C8007B681B68094A93420BD1094B9B69084AFC
:1018D80043F400639361064B9B6903F40063FB6068
:1018E800FB6800BF1437BD4680BC7047002C014020
:1018F8000010024080B588B000AF786007F10C0393
:1019080000221A605A609A60DA607B681B68194A7C
:1019180093422AD1184B9B69174A43F040039361BD
:10192800154B9B6903F04003BB60BB684FF4285319
:10193800FB6002233B610223BB6107F10C031946DC
:101948000E4801F09DFB0E4B5B68FB61FB6923F0C1
:10195800C003FB61FB6943F0E063FB61FB6943F093
:10196800C003FB61064AFB69536000BF2037BD46D0
:1019780080BD00BF002C014000100240001801404B
:101988000000014080B588B000AF786007F110030F
:1019980000221A605A609A60DA607B681B681B4AEA
:1019A80093422FD11A4BDB69194A43F40033D361B0
:1019B800174BDB6903F40033FB60FB68144B9B692E
:1019C800134A43F004039361114B9B6903F004032A
:1019D800BB60BB6804233B6102237B610323FB617B
:1019E80007F1100319460B4801F04AFB08233B6135
:1019F80000237B610023BB6107F1100319460548EA
:101A080001F03EFB00BF2037BD4680BD00440040CA
:101A1800001002400008014080B400AFFEE780B427
:101A280000AFFEE780B400AFFEE780B400AFFEE78A
:101A380080B400AFFEE780B400AF00BFBD4680BCF5
:101A4800704780B400AF00BFBD4680BC704780B40B
:101A580000AF00BFBD4680BC704780B500AF00F046
:101A68002DF900BF80BD000080B500AF024800F02E
:101A78002DFB00BF80BD00BFF001002080B500AF86
:101A8800024801F093F800BF80BD00BF200200208B
:101A980080B400AF01231846BD4680BC704780B5AE
:101AA80082B000AF7860396004F0A4F803461622CB
:101AB8001A604FF0FF3318460837BD4680BD80B521
:101AC80082B000AF78604FF0FF317868FFF7E7FF2A
:101AD800FEE780B586B000AFF860B9607A60002391
:101AE8007B610AE0AFF300800146BB685A1CBA600C
:101AF800CAB21A707B6901337B617A697B689A4242
:101B0800F0DB7B6818461837BD4680BD80B483B0CB
:101B180000AF78604FF0FF3318460C37BD4680BCE5
:101B2800704780B483B000AF786039603B684FF489
:101B380000525A60002318460C37BD4680BC7047D7
:101B480080B483B000AF7860012318460C37BD46D7
:101B580080BC704780B485B000AFF860B9607A6027
:101B6800002318461437BD4680BC704780B586B040
:101B780000AF7860144A154BD31A7B617B693B61CF
:101B8800134B1B68002B02D1114B124A1A60104BE1
:101B98001A687B6813443A699A4207D204F02AF813
:101BA80003460C221A604FF0FF3309E0084B1B680C
:101BB800FB60074B1A687B681344054A1360FB688F
:101BC80018461837BD4680BD0000012000040000FB
:101BD800080300206004002080B400AF00BFBD46A9
:101BE80080BC7047FFF7F8FF0B480C490C4A0023EC
:101BF80002E0D458C4500433C4188C42F9D3094ABB
:101C0800094C002301E013600432A242FBD303F025
:101C1800F7FFFFF729FB704700000020D4010020E0
:101C2800C47D0008D40100205C040020FEE7000009
:101C380080B500AF084B1B68074A43F010031360D8
:101C4800032000F09BFE0F2000F008F8FFF790FD3E
:101C58000023184680BD00BF0020024080B582B036
:101C680000AF7860124B1A68124B1B7819464FF474
:101C78007A73B3FBF1F3B2FBF3F3184600F0B3FE4B
:101C88000346002B01D001230EE07B680F2B0AD8F6
:101C9800002279684FF0FF3000F07BFE064A7B682F
:101CA8001360002300E0012318460837BD4680BDB5
:101CB80000000020080000200400002080B400AFCD
:101CC800054B1B781A46054B1B681344034A1360DF
:101CD80000BFBD4680BC7047080000200C030020F0
:101CE80080B400AF024B1B681846BD4680BC7047E5
:101CF8000C03002080B584B000AF7860FFF7F0FFD8
:101D0800B8607B68FB60FB68B3F1FF3F05D00A4B06
:101D18001B781A46FB681344FB6000BFFFF7E0FF1F
:101D28000246BB68D31AFA689A42F7D800BF00BFC8
:101D38001037BD4680BD00BF0800002080B586B0C2
:101D480000AF78600023FB7500233B610023BB6074
:101D58000023FB607B68002B01D10123CEE07B6868
:101D68009B68002B7B689B6A002B09D17B6800224B
:101D7800DA627B68002283F824207868FFF72AFD5E
:101D8800786800F0CFFB0346FB757B689B6A03F01D
:101D98001003002B40F0A980FB7D002B40F0A580AC
:101DA8007B689B6A23F4885323F0020343F0020202
:101DB8007B689A627B685A687B681B6851498B42CA
:101DC8000AD17B68DB69B3F5402F02D07B68DB69F9
:101DD80004E04FF4002301E07B68DB691A437B6869
:101DE8001B7B5B001343BA681343BB607B689B682B
:101DF800B3F5807F03D07B689B68012B02D14FF439
:101E0800807300E000233A6913433B617B681B7DC4
:101E1800012B19D17B681B7B002B09D17B689B693F
:101E2800013B5A033B69134343F400633B610BE0F6
:101E38007B689B6A43F020027B689A627B68DB6A56
:101E480043F001027B68DA627B681B685B6823F4F5
:101E580069417B681B683A690A435A607B681B685A
:101E68009A68294B13407A681268B9680B439360E3
:101E78007B689B68B3F5807F03D07B689B68012BE8
:101E880004D17B681B69013B1B05FB607B681B68F1
:101E9800DB6A23F470017B681B68FA680A43DA621C
:101EA8007B681B689A68194B1340BA689A420BD131
:101EB8007B680022DA627B689B6A23F0030343F0A5
:101EC80001027B689A6218E07B689B6A23F0120320
:101ED80043F010027B689A627B68DB6A43F0010278
:101EE8007B68DA620123FB7507E07B689B6A43F035
:101EF80010027B689A620123FB75FB7D1846183730
:101F0800BD4680BD003C0140FDF7E1FFFE0E1FFF0E
:101F180080B586B000AFF860B9607A600023FB75C1
:101F2800FB681B68644A934204D0FB681B68634AD9
:101F3800934206D1604B5B6803F47023002B40F09A
:101F4800B380FB6893F82430012B01D10223AEE063
:101F5800FB68012283F82420F86800F089FA034618
:101F6800FB75FB7D002B40F09A80FB689B6A23F48D
:101F7800706323F0010343F48072FB689A62FB6884
:101F88001B684E4A934205D14B4B5B6803F47023A0
:101F9800002B15D1FB689B6A23F48012FB689A62B8
:101FA800FB681B685B6803F48063002B26D0FB6822
:101FB8009B6A23F4405343F48052FB689A621DE005
:101FC800FB689B6A43F48012FB689A62FB681B6893
:101FD800394A934204D0FB681B68384A93420DD1B2
:101FE800354B5B6803F48063002B07D0FB689B6A62
:101FF80023F4405343F48052FB689A62FB689B6A5F
:1020080003F48053002B06D0FB68DB6A23F006023A
:10201800FB68DA6202E0FB680022DA62FB680022F1
:1020280083F82420FB681B6A254A9A62FB681B6AAE
:10203800244ADA62FB681B6A234A1A63FB681B6836
:102048006FF002021A60FB681B689A68FB681B68DD
:1020580042F480729A60FB68186AFB681B684C330C
:102068001946BA687B6800F041FDFB681B689B68ED
:1020780003F46023B3F5602F08D1FB681B689A68E6
:10208800FB681B6842F4A0029A600FE0FB681B68BB
:102098009A68FB681B6842F480129A6006E0FB6845
:1020A800002283F8242001E00123FB75FB7D1846FC
:1020B8001837BD4680BD00BF0024014000280140FC
:1020C800AF2500082B2600084726000880B584B0F5
:1020D80000AF78607B681B681B68FB607B681B68C7
:1020E8005B68BB60BB6803F02003002B3ED0FB6835
:1020F80003F00203002B39D07B689B6A03F01003BE
:10210800002B05D17B689B6A43F400727B689A6256
:102118007B681B689B6803F46023B3F5602F1DD1AF
:102128007B681B7B002B19D17B681B685A687B680E
:102138001B6822F020025A607B689B6A23F4807235
:102148007B689A627B689B6A03F48053002B05D1F5
:102158007B689B6A43F001027B689A627868FFF7A4
:10216800EBFA7B681B686FF012021A60BB6803F019
:102178008003002B4DD0FB6803F00403002B48D0EC
:102188007B689B6A03F01003002B05D17B689B6A70
:1021980043F400527B689A627B681B689B6803F46F
:1021A800E043B3F5E04F12D07B681B685B6803F42B
:1021B8008063002B25D17B681B689B6803F4602330
:1021C800B3F5602F1DD17B681B7B002B19D17B6871
:1021D8001B685A687B681B6822F080025A607B681B
:1021E8009B6A23F480527B689A627B689B6A03F43B
:1021F8008073002B05D17B689B6A43F001027B68E2
:102208009A62786800F0E4FA7B681B686FF00C0249
:102218001A60BB6803F04003002B12D0FB6803F080
:102228000103002B0DD07B689B6A43F480327B68E6
:102238009A62786800F012F87B681B686FF00102F8
:102248001A6000BF1037BD4680BD80B483B000AFB0
:10225800786000BF0C37BD4680BC704780B483B03F
:1022680000AF786000BF0C37BD4680BC704780B4B3
:1022780083B000AF786000BF0C37BD4680BC7047A4
:1022880080B485B000AF786039600023FB73002309
:10229800BB607B6893F82430012B01D10223DCE07A
:1022A8007B68012283F824203B685B68062B1CD8D6
:1022B8007B681B68596B3B685A6813469B0013443C
:1022C800053B1F2202FA03F3DB4319403B681868F9
:1022D8003B685A6813469B001344053B00FA03F217
:1022E8007B681B680A435A633CE03B685B680C2BBD
:1022F8001CD87B681B68196B3B685A6813469B009F
:102308001344233B1F2202FA03F3DB4319403B68C3
:1023180018683B685A6813469B001344233B00FA2D
:1023280003F27B681B680A431A631BE07B681B681F
:10233800D96A3B685A6813469B001344413B1F22E5
:1023480002FA03F3DB4319403B6818683B685A6894
:1023580013469B001344413B00FA03F27B681B6859
:102368000A43DA623B681B68092B1CD97B681B6827
:10237800D9683B681A6813465B0013441E3B072262
:1023880002FA03F3DB4319403B6898683B681A6814
:1023980013465B0013441E3B00FA03F27B681B687C
:1023A8000A43DA6019E07B681B6819693B681A6898
:1023B80013465B001344072202FA03F3DB43194078
:1023C8003B6898683B681A6813465B00134400FA38
:1023D80003F27B681B680A431A613B681B68102B71
:1023E80003D03B681B68112B32D17B681B681D4AE0
:1023F800934225D17B681B689B6803F40003002B7C
:1024080026D17B681B689A687B681B6842F40002C7
:102418009A603B681B68102B1AD1134B1B68134A30
:10242800A2FB03239A0C13469B0013445B00BB607A
:1024380002E0BB68013BBB60BB68002BF9D107E039
:102448007B689B6A43F020027B689A620123FB73D6
:102458007B68002283F82420FB7B18461437BD468E
:1024680080BC7047002401400000002083DE1B432D
:1024780080B584B000AF78600023FB600023BB60A8
:102488007B681B689B6803F00103012B40D07B68C5
:102498001B689A687B681B6842F001029A601F4BB0
:1024A8001B681F4AA2FB03239B0CBB6002E0BB68AE
:1024B800013BBB60BB68002BF9D1FFF711FCF8604A
:1024C8001FE0FFF70DFC0246FB68D31A022B18D950
:1024D8007B681B689B6803F00103012B11D07B68A4
:1024E8009B6A43F010027B689A627B68DB6A43F060
:1024F80001027B68DA627B68002283F824200123CA
:1025080007E07B681B689B6803F00103012BD8D1A7
:10251800002318461037BD4680BD00BF00000020CC
:1025280083DE1B4380B584B000AF78600023FB6076
:102538007B681B689B6803F00103012B2ED17B6825
:102548001B689A687B681B6822F001029A60FFF793
:10255800C7FBF8601BE0FFF7C3FB0246FB68D31A12
:10256800022B14D97B681B689B6803F00103012BBD
:102578000DD17B689B6A43F010027B689A627B6886
:10258800DB6A43F001027B68DA62012307E07B68BB
:102598001B689B6803F00103012BDCD0002318465D
:1025A8001037BD4680BD80B584B000AF78607B68C9
:1025B8005B6AFB60FB689B6A03F05003002B27D122
:1025C800FB689B6A43F40072FB689A62FB681B68AD
:1025D8009B6803F46023B3F5602F15D1FB681B7B60
:1025E800002B11D1FB689B6A23F48072FB689A6206
:1025F800FB689B6A03F48053002B05D1FB689B6A38
:1026080043F00102FB689A62F868FFF795F804E066
:10261800FB681B6A1B6B7868984700BF1037BD467C
:1026280080BD80B584B000AF78607B685B6AFB6072
:10263800F868FFF70AFE00BF1037BD4680BD80B5B9
:1026480084B000AF78607B685B6AFB60FB689B6A5C
:1026580043F04002FB689A62FB68DB6A43F00402BD
:10266800FB68DA62F868FFF702FE00BF1037BD4664
:1026780080BD000090B587B000AF78600023FB757F
:102688000023FB607B6893F82430012B01D10223DF
:1026980097E07B68012283F824207868FFF742FFDF
:1026A8000346FB757868FFF7E3FE0346FB75FB7D81
:1026B800002B40F081807B689B6A23F4885323F0C9
:1026C800020343F002027B689A62404B1C680220B6
:1026D80001F048FB0346B4FBF3F35B00FB6002E048
:1026E800FB68013BFB60FB68002BF9D17B681B682A
:1026F8009A687B681B6842F008029A60FFF7F0FA54
:1027080038611BE0FFF7ECFA02463B69D31A0A2B43
:1027180014D97B681B689B6803F00803002B0DD055
:102728007B689B6A23F0120343F010027B689A626D
:102738007B68002283F82420012342E07B681B6821
:102748009B6803F00803002BDCD17B681B689A6840
:102758007B681B6842F004029A60FFF7C1FA38618F
:102768001BE0FFF7BDFA02463B69D31A0A2B14D9BE
:102778007B681B689B6803F00403002B0DD07B6803
:102788009B6A23F0120343F010027B689A627B680D
:10279800002283F82420012313E07B681B689B68D0
:1027A80003F00403002BDCD17B689B6A23F003034E
:1027B80043F001027B689A627B68002283F8242038
:1027C800FB7D18461C37BD4690BD00BF00000020A9
:1027D80080B483B000AF786000BF0C37BD4680BCC2
:1027E8007047000080B485B000AF78607B6803F064
:1027F8000703FB600C4BDB68BB60BA684FF6FF034E
:102808001340BB60FB681A02BB68134343F0BF6305
:1028180043F40033BB60044ABB68D36000BF14377D
:10282800BD4680BC704700BF00ED00E080B400AF3B
:10283800044BDB681B0A03F007031846BD4680BC3F
:10284800704700BF00ED00E080B483B000AF0346DE
:10285800FB7197F90730002B0BDBFB7903F01F02A4
:10286800064997F907305B09012000FA02F241F89E
:10287800232000BF0C37BD4680BC704700E100E054
:1028880080B483B000AF03463960FB7197F9073015
:10289800002B0ADB3B68DAB20C4997F907301201C2
:1028A800D2B20B4483F800230AE03B68DAB2084945
:1028B800FB7903F00F03043B1201D2B20B441A76E2
:1028C80000BF0C37BD4680BC704700BF00E100E088
:1028D80000ED00E080B489B000AFF860B9607A60BC
:1028E800FB6803F00703FB61FB69C3F10703042BD3
:1028F80028BF0423BB61FB690433062B02D9FB699B
:10290800033B00E000237B614FF0FF32BB6902FA12
:1029180003F3DA43BB681A407B699A404FF0FF31F2
:102928007B6901FA03F3D9437B680B4013431846CC
:102938002437BD4680BC704780B582B000AF786050
:102948007B68013BB3F1807F01D301230FE00A4A82
:102958007B68013B53600F214FF0FF30FFF790FF7A
:10296800054B00229A60044B07221A600023184680
:102978000837BD4680BD00BF10E000E080B582B0DA
:1029880000AF78607868FFF72DFF00BF0837BD46B5
:1029980080BD80B586B000AF0346B9607A60FB732E
:1029A80000237B61FFF742FF78617A68B96878692C
:1029B800FFF790FF024697F90F3011461846FFF7C8
:1029C8005FFF00BF1837BD4680BD80B582B000AF3D
:1029D8000346FB7197F907301846FFF735FF00BF2C
:1029E8000837BD4680BD80B582B000AF7860786892
:1029F800FFF7A2FF034618460837BD4680BD000012
:102A080080B485B000AF78600023FB607B68002B42
:102A180001D1012359E07B681B681A462D4B9A4265
:102A28000FD87B681B681A462B4B13442B4AA2FB12
:102A380003231B099A007B681A647B68284ADA63B7
:102A48000EE07B681B681A46264B1344234AA2FBF8
:102A580003231B099A007B681A647B68224ADA639D
:102A68007B68022283F821207B681B681B68FB6057
:102A7800FB6823F47F5323F03003FB607B685A68BC
:102A88007B689B681A437B68DB681A437B681B6911
:102A98001A437B685B691A437B689B691A437B68A6
:102AA800DB691343FA681343FB607B681B68FA68A9
:102AB8001A607B6800229A637B68012283F82120D0
:102AC8007B68002283F82020002318461437BD466F
:102AD80080BC704707040240F8FFFDBFCDCCCCCCCA
:102AE80000000240F8FBFDBF0004024080B586B03C
:102AF80000AFF860B9607A603B600023FB75FB6843
:102B080093F82030012B01D102234BE0FB6801220E
:102B180083F82020FB6893F82130DBB2012B3AD1EF
:102B2800FB68022283F82120FB6800229A63FB6875
:102B38001B681A68FB681B6822F001021A603B6870
:102B48007A68B968F86800F06DFAFB68DB6A002BF0
:102B580008D0FB681B681A68FB681B6842F00E0205
:102B68001A600FE0FB681B681A68FB681B6822F094
:102B780004021A60FB681B681A68FB681B6842F04D
:102B88000A021A60FB681B681A68FB681B6842F037
:102B980001021A6005E0FB68002283F82020022366
:102BA800FB75FB7D18461837BD4680BD80B584B0DF
:102BB80000AF78607B68DB6B1B68FB607B681B6819
:102BC8001B68BB607B681B6C04229A40FB6813403F
:102BD800002B00F0F180BB6803F00403002B00F029
:102BE800EB807B681B681B6803F02003002B07D170
:102BF8007B681B681A687B681B6822F004021A60ED
:102C08007B681B681A465F4B9A4258D97B681B68D9
:102C18005D4A93424FD07B681B685C4A934248D018
:102C28007B681B685A4A934240D07B681B68594AA4
:102C3800934238D07B681B68574A934230D07B68F0
:102C48001B68564A934228D07B681B684D4A9342BA
:102C580020D07B681B68524A934219D07B681B6856
:102C6800504A934212D07B681B684F4A93420AD05D
:102C78007B681B684D4A934202D14FF480431BE0A6
:102C88004FF4802318E04FF4806315E0402313E0ED
:102C9800042311E04FF080630EE04FF480030BE053
:102CA8004FF4802308E04FF4804305E04FF480633D
:102CB80002E0402300E004233D4A536057E07B686C
:102CC8001B68314A93424FD07B681B682F4A934256
:102CD80048D07B681B682E4A934240D07B681B68AB
:102CE8002C4A934238D07B681B682B4A934230D0D9
:102CF8007B681B68294A934228D07B681B68214A55
:102D0800934220D07B681B68254A934219D07B6880
:102D18001B68244A934212D07B681B68224A93425C
:102D28000AD07B681B68214A934202D14FF4804342
:102D38001BE04FF4802318E04FF4806315E0402334
:102D480013E0042311E04FF080630EE04FF480039A
:102D58000BE04FF4802308E04FF4804305E04FF484
:102D6800806302E0402300E00423124A53607B683A
:102D7800DB6A002B00F036817B68DB6A786898474D
:102D880030E100BF80000240080002401C00024001
:102D98003000024044000240580002406C000240EB
:102DA800080402401C04024030040240440402406B
:102DB80000040240000002407B681B6C02229A401B
:102DC800FB681340002B00F0DD80BB6803F00203B2
:102DD800002B00F0D7807B681B681B6803F020037A
:102DE800002B0BD17B681B681A687B681B6822F074
:102DF8000A021A607B68012283F821207B681B681D
:102E08001A467B4B9A4258D97B681B68794A934289
:102E18004FD07B681B68784A934248D07B681B6810
:102E2800764A934240D07B681B68754A934238D0F3
:102E38007B681B68734A934230D07B681B68724A70
:102E4800934228D07B681B68694A934220D07B68EC
:102E58001B686E4A934219D07B681B686C4A934280
:102E680012D07B681B686B4A93420AD07B681B6848
:102E7800694A934202D14FF400531BE04FF40033E8
:102E880018E04FF4007315E0202313E0022311E04B
:102E98004FF000730EE04FF400130BE04FF40033D3
:102EA80008E04FF4005305E04FF4007302E02023DC
:102EB80000E00223594A536057E07B681B684D4A7B
:102EC80093424FD07B681B684B4A934248D07B683B
:102ED8001B684A4A934240D07B681B68484A934221
:102EE80038D07B681B68474A934230D07B681B68A0
:102EF800454A934228D07B681B683D4A934220D0BC
:102F08007B681B68414A934219D07B681B68404A1A
:102F1800934212D07B681B683E4A93420AD07B6872
:102F28001B683D4A934202D14FF400531BE04FF413
:102F3800003318E04FF4007315E0202313E0022358
:102F480011E04FF000730EE04FF400130BE04FF464
:102F5800003308E04FF4005305E04FF4007302E03B
:102F6800202300E002232E4A53607B68002283F866
:102F780020207B689B6A002B34D07B689B6A78682A
:102F880098472FE07B681B6C08229A40FB68134027
:102F9800002B28D0BB6803F00803002B23D07B68E4
:102FA8001B681A687B681B6822F00E021A607B682F
:102FB8001A6C7B68DB6B012101FA02F25A607B68AC
:102FC80001229A637B68012283F821207B68002212
:102FD80083F820207B681B6B002B04D07B681B6B5D
:102FE8007868984700BF00BF1037BD4680BD00BF56
:102FF80080000240080002401C00024030000240ED
:1030080044000240580002406C000240080402409C
:103018001C04024030040240440402400004024000
:103028000000024080B485B000AFF860B9607A60F3
:103038003B60FB681A6CFB68DB6B012101FA02F24A
:103048005A60FB681B683A685A60FB685B68102B1B
:1030580008D1FB681B687A689A60FB681B68BA68C5
:10306800DA6007E0FB681B68BA689A60FB681B684F
:103078007A68DA6000BF1437BD4680BC704700002C
:1030880080B48BB000AF7860396000237B62002386
:103098003B6279E101227B6A02FA03F3FB613B6838
:1030A8001B68FA691340BB61BA69FB699A4240F030
:1030B80068813B685B68964A93425ED0944A934223
:1030C80075D8944A934258D0924A93426FD8924AFC
:1030D800934252D0904A934269D8904A93424CD036
:1030E8008E4A934263D88E4A934246D08C4A934282
:1030F8005DD8122B2AD8122B59D801A252F823F0E6
:10310800833100085D3100086F310008B1310008D3
:10311800B7310008B7310008B7310008B7310008E7
:10312800B7310008B7310008B7310008B7310008D7
:10313800B7310008B7310008B7310008B7310008C7
:10314800B73100086531000879310008754A9342A3
:1031580013D02CE03B68DB683B6229E03B68DB6806
:1031680004333B6224E03B68DB6808333B621FE0C2
:103178003B68DB680C333B621AE03B689B68002BBA
:1031880002D104233B6213E03B689B68012B05D105
:1031980008233B627B68FA691A6109E008233B62ED
:1031A8007B68FA695A6103E000233B6200E000BFD4
:1031B800BB69FF2B01D87B6801E07B6804337B6126
:1031C800BB69FF2B02D87B6A9B0002E07B6A083B45
:1031D8009B003B617B691A680F213B6901FA03F385
:1031E800DB431A40396A3B6901FA03F31A437B69E6
:1031F8001A603B685B6803F08053002B00F0C180C5
:10320800494B9B69484A43F001039361464B9B69CC
:1032180003F00103BB60BB68444A7B6A9B08023326
:1032280052F82330FB607B6A03F003039B000F22F4
:1032380002FA03F3DB43FA681340FB607B683C4AFD
:1032480093421FD07B683B4A934219D07B683A4A25
:10325800934213D07B68394A93420DD07B68384A31
:10326800934207D07B68374A934201D105230AE08D
:10327800062308E0042306E0032304E0022302E017
:10328800012300E000237A6A02F0030292009340CF
:10329800FA681343FB6025497B6A9B080233FA6886
:1032A80041F823203B685B6803F48013002B06D0A9
:1032B800254B9A682449BB6913438B6006E0224B6F
:1032C8009A68BB69DB43204913408B603B685B68A5
:1032D80003F40013002B06D01B4BDA681A49BB69AC
:1032E8001343CB6006E0184BDA68BB69DB43164929
:1032F8001340CB603B685B6803F40033002B25D098
:10330800114B5A681049BB6913434B6025E000BF55
:1033180000003210000031100000221000002110BF
:1033280000001210000011100010024000000140BF
:1033380000080140000C0140001001400014014049
:1033480000180140001C014000040140154B5A6858
:10335800BB69DB43134913404B603B685B6803F46C
:103368008033002B06D00F4B1A680E49BB691343F4
:103378000B6006E00B4B1A68BB69DB430949134035
:103388000B607B6A01337B623B681A687B6A22FAAE
:1033980003F3002B7FF47EAE00BF00BF2C37BD4681
:1033A80080BC70470004014080B483B000AF7860EF
:1033B8000B467B8013467B707B78002B03D07A8882
:1033C8007B681A6103E07B881A047B681A6100BF76
:1033D8000C37BD4680BC704780B586B000AF7860BA
:1033E8007B68002B01D1012372E27B681B6803F024
:1033F8000103002B00F08780924B5B6803F00C03FD
:10340800042B0CD08F4B5B6803F00C03082B12D1F4
:103418008C4B5B6803F48033B3F5803F0BD1894B49
:103428001B6803F40033002B6CD07B685B68002BAF
:1034380068D101234CE27B685B68B3F5803F06D115
:10344800804B1B687F4A43F4803313602EE07B680F
:103458005B68002B0CD17B4B1B687A4A23F48033C2
:103468001360784B1B68774A23F4802313601DE0B0
:103478007B685B68B3F5A02F0CD1724B1B68714A4F
:1034880043F4802313606F4B1B686E4A43F4803308
:1034980013600BE06B4B1B686A4A23F4803313609C
:1034A800684B1B68674A23F4802313607B685B685A
:1034B800002B13D0FEF714FC386108E0FEF710FC6F
:1034C80002463B69D31A642B01D9032300E25D4B02
:1034D8001B6803F40033002BF0D014E0FEF700FC67
:1034E800386108E0FEF7FCFB02463B69D31A642BFF
:1034F80001D90323ECE1534B1B6803F40033002B81
:10350800F0D100E000BF7B681B6803F00203002BCA
:1035180063D04C4B5B6803F00C03002B0BD0494B7A
:103528005B6803F00C03082B1CD1464B5B6803F463
:103538008033002B16D1434B1B6803F00203002B8A
:1035480005D07B681B69012B01D00123C0E13D4BED
:103558001B6823F0F8027B685B69DB003949134379
:103568000B603AE07B681B69002B20D0364B0122A8
:103578001A60FEF7B5FB386108E0FEF7B1FB0246BA
:103588003B69D31A022B01D90323A1E12D4B1B68F8
:1035980003F00203002BF0D02A4B1B6823F0F8023B
:1035A8007B685B69DB00274913430B6015E0264BFA
:1035B80000221A60FEF794FB386108E0FEF790FBE2
:1035C80002463B69D31A022B01D9032380E11D4B24
:1035D8001B6803F00203002BF0D17B681B6803F023
:1035E8000803002B3AD07B689B69002B19D0174B36
:1035F80001221A60FEF774FB386108E0FEF770FBE1
:1036080002463B69D31A022B01D9032360E10D4B13
:103618005B6A03F00203002BF0D0012000F0CEFA21
:103628001CE00A4B00221A60FEF75AFB38610FE0D3
:10363800FEF756FB02463B69D31A022B08D903232F
:1036480046E100BF001002400000424280044242AE
:10365800924B5B6A03F00203002BE9D17B681B687D
:1036680003F00403002B00F0A6800023FB758B4BAE
:10367800DB6903F08053002B0DD1884BDB69874A47
:1036880043F08053D361854BDB6903F08053BB6003
:10369800BB680123FB75824B1B6803F48073002B06
:1036A80018D17F4B1B687E4A43F480731360FEF782
:1036B80017FB386108E0FEF713FB02463B69D31A93
:1036C800642B01D9032303E1754B1B6803F4807352
:1036D800002BF0D07B68DB68012B06D16F4B1B6A8F
:1036E8006E4A43F0010313622DE07B68DB68002B10
:1036F8000CD16A4B1B6A694A23F001031362674BBA
:103708001B6A664A23F0040313621CE07B68DB68CB
:10371800052B0CD1614B1B6A604A43F0040313620A
:103728005E4B1B6A5D4A43F0010313620BE05B4B7F
:103738001B6A5A4A23F001031362584B1B6A574A03
:1037480023F0040313627B68DB68002B15D0FEF7B7
:10375800C7FA38610AE0FEF7C3FA02463B69D31A92
:1037680041F28832934201D90323B1E04B4B1B6AE3
:1037780003F00203002BEED014E0FEF7B1FA386133
:103788000AE0FEF7ADFA02463B69D31A41F28832E5
:10379800934201D903239BE0404B1B6A03F00203C9
:1037A800002BEED1FB7D012B05D13C4BDB693B4A5D
:1037B80023F08053D3617B68DB69002B00F087809E
:1037C800364B5B6803F00C03082B61D07B68DB6920
:1037D800022B46D1334B00221A60FEF781FA38617A
:1037E80008E0FEF77DFA02463B69D31A022B01D99D
:1037F80003236DE0294B1B6803F00073002BF0D105
:103808007B681B6AB3F5803F08D1244B5B6823F4BF
:1038180000327B689B68214913434B601F4B5B68F0
:1038280023F474127B68196A7B685B6A0B431B4933
:1038380013434B601B4B01221A60FEF751FA3861A3
:1038480008E0FEF74DFA02463B69D31A022B01D96C
:1038580003233DE0114B1B6803F00073002BF0D0ED
:1038680035E0104B00221A60FEF73AFA386108E09A
:10387800FEF736FA02463B69D31A022B01D9032315
:1038880026E0064B1B6803F00073002BF0D11EE006
:103898007B68DB69012B07D1012319E00010024086
:1038A80000700040600042420B4B5B68FB60FB68A5
:1038B80003F480327B681B6A9A4206D1FB6803F4E2
:1038C80070127B685B6A9A4201D0012300E00023F2
:1038D80018461837BD4680BD0010024080B584B038
:1038E80000AF786039607B68002B01D10123D0E0FC
:1038F8006A4B1B6803F007033A689A4210D9674B72
:103908001B6823F0070265493B6813430B60634B50
:103918001B6803F007033A689A4201D00123B8E014
:103928007B681B6803F00203002B20D07B681B68B0
:1039380003F00403002B05D0594B5B68584A43F445
:10394800E06353607B681B6803F00803002B05D015
:10395800534B5B68524A43F460535360504B5B6867
:1039680023F0F0027B689B684D4913434B607B68EA
:103978001B6803F00103002B40D07B685B68012BB8
:1039880007D1474B1B6803F40033002B15D10123E3
:103998007FE07B685B68022B07D1414B1B6803F013
:1039A8000073002B09D1012373E03D4B1B6803F022
:1039B8000203002B01D101236BE0394B5B6823F034
:1039C80003027B685B68364913434B60FEF788F94E
:1039D800F8600AE0FEF784F90246FB68D31A41F260
:1039E8008832934201D9032353E02D4B5B6803F0DF
:1039F8000C027B685B689B009A42EBD1274B1B68E3
:103A080003F007033A689A4210D2244B1B6823F04C
:103A1800070222493B6813430B60204B1B6803F0E5
:103A280007033A689A4201D0012332E07B681B6899
:103A380003F00403002B08D0194B5B6823F4E06201
:103A48007B68DB68164913434B607B681B6803F08F
:103A58000803002B09D0124B5B6823F460527B6883
:103A68001B69DB000E4913434B6000F021F8024646
:103A78000B4B5B681B0903F00F030A49CB5C22FA66
:103A880003F3094A1360094B1B681846FEF7E6F86A
:103A9800002318461037BD4680BD00BF00200240F5
:103AA80000100240107A00080000002004000020E6
:103AB80080B487B000AF0023FB600023BB60002305
:103AC8007B6100237B6000233B611E4B5B68FB60CE
:103AD800FB6803F00C03042B02D0082B03D027E06B
:103AE800194B3B6127E0FB689B0C03F00F03174A57
:103AF800D35C7B60FB6803F48033002B10D0114B40
:103B08005B685B0C03F00103114AD35CBB607B6804
:103B18000D4A03FB02F2BB68B2FBF3F37B6104E0DE
:103B28007B680C4A02FB03F37B617B693B6102E023
:103B3800054B3B6100BF3B6918461C37BD4680BC3E
:103B4800704700BF0010024000127A00287A00086F
:103B5800387A000800093D0080B400AF024B1B68AA
:103B68001846BD4680BC70470000002080B500AFF5
:103B7800FFF7F2FF0246054B5B681B0A03F00703D9
:103B88000349CB5C22FA03F3184680BD00100240BB
:103B9800207A000880B500AFFFF7DEFF0246054B2C
:103BA8005B68DB0A03F007030349CB5C22FA03F3E3
:103BB800184680BD00100240207A000880B485B005
:103BC80000AF78600A4B1B680A4AA2FB03235B0A12
:103BD8007A6802FB03F3FB6000BFFB685A1EFA60B9
:103BE800002BF9D100BF00BF1437BD4680BC704719
:103BF80000000020D34D621080B586B000AF786019
:103C080000233B610023FB607B681B6803F0010312
:103C1800002B7DD00023FB754F4BDB6903F08053ED
:103C2800002B0DD14C4BDB694B4A43F08053D361D9
:103C3800494BDB6903F08053BB60BB680123FB750C
:103C4800464B1B6803F48073002B18D1434B1B6849
:103C5800424A43F480731360FEF742F8386108E083
:103C6800FEF73EF802463B69D31A642B01D90323B9
:103C78006DE03A4B1B6803F48073002BF0D0364B91
:103C88001B6A03F44073FB60FB68002B2ED07B6833
:103C98005B6803F44073FA689A4227D02E4B1B6A7C
:103CA80023F44073FB602E4B01221A602C4B002238
:103CB8001A60294AFB681362FB6803F00103002BB2
:103CC80014D0FEF70DF838610AE0FEF709F802464D
:103CD8003B69D31A41F28832934201D9032336E073
:103CE8001D4B1B6A03F00203002BEED01A4B1B6A14
:103CF80023F440727B685B68174913430B62FB7DB2
:103D0800012B05D1144BDB69134A23F08053D3618F
:103D18007B681B6803F00203002B08D00E4B5B681E
:103D280023F440427B689B680B4913434B607B68D4
:103D38001B6803F01003002B08D0074B5B6823F4C3
:103D480080027B685B69044913434B600023184673
:103D58001837BD4680BD00BF00100240007000400B
:103D68004004424280B588B000AF786000237B6190
:103D78000023FB6100233B610023FB600023BB6140
:103D88007B68013B0F2B00F2AF8001A252F823F0B1
:103D98006F3E0008D53E0008F13E00085F3E00086F
:103DA800F13E0008F13E0008F13E0008673E0008B9
:103DB800F13E0008F13E0008F13E0008F13E00081F
:103DC800F13E0008F13E0008F13E0008D93D000828
:103DD8004A4B5B68FB60494B1B6803F08073002B00
:103DE80000F08480FB689B0C03F00F03444AD35C0B
:103DF8003B61FB6803F48033002B15D03F4B5B68B5
:103E08005B0C03F001033F4AD35C7B61FB6803F45E
:103E18008033002B0DD03C4A7B69B2FBF3F23B693F
:103E280002FB03F3FB6104E03B69384A02FB03F33E
:103E3800FB61324B5B6803F48003B3F5800F02D15A
:103E4800FB69BB6152E0FB695B00314AA2FB0323BB
:103E58005B08BB614AE0FFF72BFEB86149E0FFF75A
:103E680027FEB86145E0254B1B6AFB60FB6803F43D
:103E78004073B3F5807F08D1FB6803F00203002B81
:103E880003D04FF40043BB611FE0FB6803F44073A9
:103E9800B3F5007F09D1194B5B6A03F00203002BCD
:103EA80003D049F64043BB610FE0FB6803F440735D
:103EB800B3F5407F1CD1114B1B6803F40033002B72
:103EC80016D04FF22443BB6112E011E0FFF762FE07
:103ED80002460A4B5B689B0B03F0030301335B004C
:103EE800B2FBF3F3BB6104E000BF02E000BF00E0F7
:103EF80000BFBB6918462037BD4680BD0010024090
:103F08003C7A00084C7A000800127A0000093D004B
:103F1800ABAAAAAA80B485B000AF78607B6893F892
:103F28003D30DBB2012B01D001233CE07B6802224B
:103F380083F83D207B681B681D4A934218D07B6834
:103F48001B681C4A934213D07B681B68B3F1804FEF
:103F58000ED07B681B68184A934209D07B681B689F
:103F6800164A934204D07B681B68154A934211D1C4
:103F78007B681B689B6803F00703FB60FB68062BE4
:103F880010D07B681B681A687B681B6842F00102C6
:103F98001A6007E07B681B681A687B681B6842F038
:103FA80001021A60002318461437BD4680BC7047CA
:103FB800002C01400034014000040040000800408B
:103FC800000C004080B584B000AF786039603B6871
:103FD800002B09D17B6893F83E30DBB2012B14BF6C
:103FE80001230023DBB222E03B68042B09D17B6864
:103FF80093F83F30DBB2012B14BF01230023DBB25F
:1040080015E03B68082B09D17B6893F84030DBB298
:10401800012B14BF01230023DBB208E07B6893F86F
:104028004130DBB2012B14BF01230023DBB2002B8C
:1040380001D0012372E03B68002B04D17B68022287
:1040480083F83E2013E03B68042B04D17B680222EE
:1040580083F83F200BE03B68082B04D17B680222E1
:1040680083F8402003E07B68022283F841207B68C4
:104078001B6801223968184600F0FEFB7B681B6844
:10408800284A934204D07B681B68274A934201D18F
:10409800012300E00023002B07D07B681B685A6CC3
:1040A8007B681B6842F400425A647B681B681D4A9F
:1040B800934218D07B681B681B4A934213D07B68D5
:1040C8001B68B3F1804F0ED07B681B68174A934278
:1040D80009D07B681B68164A934204D07B681B682A
:1040E800144A934211D17B681B689B6803F007034D
:1040F800FB60FB68062B10D07B681B681A687B681E
:104108001B6842F001021A6007E07B681B681A68A6
:104118007B681B6842F001021A60002318461037BA
:10412800BD4680BD002C0140003401400004004021
:1041380000080040000C004080B582B000AF7860F5
:104148007B68002B01D1012341E07B6893F83D3067
:10415800DBB2002B06D17B68002283F83C2078680C
:10416800FDF7AAFB7B68022283F83D207B681A686A
:104178007B6804331946104600F04CF97B6801222D
:1041880083F846207B68012283F83E207B68012261
:1041980083F83F207B68012283F840207B68012256
:1041A80083F841207B68012283F842207B68012242
:1041B80083F843207B68012283F844207B6801222E
:1041C80083F845207B68012283F83D2000231846A8
:1041D8000837BD4680BD000080B586B000AFF860E6
:1041E800B9607A600023FB75FB6893F83C30012BBB
:1041F80001D1022348E0FB68012283F83C207B6858
:104208000C2B39D801A252F823F000BF494200080C
:104218008142000881420008814200085742000894
:104228008142000881420008814200086542000876
:104238008142000881420008814200087342000858
:10424800FB681B68B968184600F06AF917E0FB6854
:104258001B68B968184600F0D3F910E0FB681B68C2
:10426800B968184600F040FA09E0FB681B68B968AD
:10427800184600F0ADFA02E00123FB7500BFFB68A9
:10428800002283F83C20FB7D18461837BD4680BDC8
:1042980080B586B000AFF860B9607A600023FB751E
:1042A800FB6893F83C30012B01D10223AEE0FB6898
:1042B800012283F83C207B680C2B00F29F8001A22E
:1042C80052F823F00143000805440008054400089B
:1042D8000544000841430008054400080544000857
:1042E8000544000883430008054400080544000805
:1042F80005440008C3430008FB681B68B9681846F2
:1043080000F00EF9FB681B689A69FB681B6842F0AD
:1043180008029A61FB681B689A69FB681B6822F0AF
:1043280004029A61FB681B689969BB681A69FB6893
:104338001B680A439A6164E0FB681B68B968184601
:1043480000F05EF9FB681B689A69FB681B6842F419
:1043580000629A61FB681B689A69FB681B6822F413
:1043680080629A61FB681B689969BB681B691A02BD
:10437800FB681B680A439A6143E0FB681B68B968DD
:10438800184600F0B1F9FB681B68DA69FB681B681E
:1043980042F00802DA61FB681B68DA69FB681B688F
:1043A80022F00402DA61FB681B68D969BB681A69E4
:1043B800FB681B680A43DA6123E0FB681B68B9687D
:1043C800184600F005FAFB681B68DA69FB681B6889
:1043D80042F40062DA61FB681B68DA69FB681B68F3
:1043E80022F48062DA61FB681B68D969BB681B69C3
:1043F8001A02FB681B680A43DA6102E00123FB75B5
:1044080000BFFB68002283F83C20FB7D1846183764
:10441800BD4680BD80B485B000AF786039607B68E8
:104428001B68FB607B68394A934213D07B68384A23
:1044380093420FD07B68B3F1804F0BD07B68354A2D
:10444800934207D07B68344A934203D07B68334A4F
:10445800934208D1FB6823F07003FB603B685B68FC
:10446800FA681343FB607B68284A934213D07B6841
:10447800274A93420FD07B68B3F1804F0BD07B68FB
:10448800244A934207D07B68234A934203D07B682F
:10449800224A934208D1FB6823F44073FB603B68CF
:1044A800DB68FA681343FB60FB6823F080023B6813
:1044B8005B691343FB607B68FA681A603B689A681B
:1044C8007B68DA623B681A687B689A627B680F4A85
:1044D800934203D07B680E4A934203D13B681A6922
:1044E8007B681A637B6801225A617B681B6903F049
:1044F8000103002B05D07B681B6923F001027B6850
:104508001A6100BF1437BD4680BC7047002C0140BB
:10451800003401400004004000080040000C004046
:1045280080B487B000AF786039607B681B6A7B61B4
:104538007B681B6A23F001027B681A627B685B68F0
:104548003B617B689B69FB60FB6823F07003FB6041
:10455800FB6823F00303FB603B681B68FA6813439E
:10456800FB607B6923F002037B613B689B687A6987
:1045780013437B617B68204A934203D07B681F4AC0
:1045880093420CD17B6923F008037B613B68DB68AD
:104598007A6913437B617B6923F004037B617B6841
:1045A800154A934203D07B68144A934211D13B6960
:1045B80023F480733B613B6923F400733B613B68E0
:1045C8005B693A6913433B613B689B693A691343EA
:1045D8003B617B683A695A607B68FA689A613B6814
:1045E8005A687B685A637B687A691A6200BF1C370D
:1045F800BD4680BC704700BF002C0140003401401C
:1046080080B487B000AF786039607B681B6A7B61D3
:104618007B681B6A23F010027B681A627B685B6800
:104628003B617B689B69FB60FB6823F4E043FB60AC
:10463800FB6823F44073FB603B681B681B02FA6845
:104648001343FB607B6923F020037B613B689B6815
:104658001B017A6913437B617B68214A934203D02B
:104668007B68204A93420DD17B6923F080037B61EC
:104678003B68DB681B017A6913437B617B6923F024
:1046880040037B617B68164A934203D07B68154AD6
:10469800934213D13B6923F480633B613B6923F464
:1046A80000633B613B685B699B003A6913433B616C
:1046B8003B689B699B003A6913433B617B683A6995
:1046C8005A607B68FA689A613B685A687B689A63A3
:1046D8007B687A691A6200BF1C37BD4680BC704788
:1046E800002C01400034014080B487B000AF7860EE
:1046F80039607B681B6A7B617B681B6A23F4807264
:104708007B681A627B685B683B617B68DB69FB607E
:10471800FB6823F07003FB60FB6823F00303FB6076
:104728003B681B68FA681343FB607B6923F40073DA
:104738007B613B689B681B027A6913437B617B68DA
:10474800214A934203D07B68204A93420DD17B696A
:1047580023F400637B613B68DB681B027A691343BF
:104768007B617B6923F480637B617B68164A934293
:1047780003D07B68154A934213D13B6923F48053D5
:104788003B613B6923F400533B613B685B691B0158
:104798003A6913433B613B689B691B013A691343C0
:1047A8003B617B683A695A607B68FA68DA613B6802
:1047B8005A687B68DA637B687A691A6200BF1C37BB
:1047C800BD4680BC704700BF002C0140003401404A
:1047D80080B487B000AF786039607B681B6A3B6142
:1047E8007B681B6A23F480527B681A627B685B686B
:1047F8007B617B68DB69FB60FB6823F4E043FB605B
:10480800FB6823F44073FB603B681B681B02FA6873
:104818001343FB603B6923F400533B613B689B688F
:104828001B033A6913433B617B68114A934203D0E7
:104838007B68104A934209D17B6923F480437B61EA
:104848003B685B699B017A6913437B617B687A6982
:104858005A607B68FA68DA613B685A687B681A6450
:104868007B683A691A6200BF1C37BD4680BC704736
:10487800002C01400034014080B487B000AFF860DC
:10488800B9607A60BB6803F01F03012202FA03F3E0
:104898007B61FB681A6A7B69DB431A40FB681A6212
:1048A800FB681A6ABB6803F01F03796801FA03F30F
:1048B8001A43FB681A6200BF1C37BD4680BC7047AC
:1048C80080B485B000AF786039607B6893F83C307D
:1048D800012B01D1022350E07B68012283F83C20A0
:1048E8007B68022283F83D207B681B685B68FB605D
:1048F8007B681B689B68BB60FB6823F07003FB60E8
:104908003B681B68FA681343FB607B681B68FA689E
:104918005A607B681B681B4A934218D07B681B68E7
:10492800194A934213D07B681B68B3F1804F0ED0AD
:104938007B681B68154A934209D07B681B68144A38
:10494800934204D07B681B68124A93420CD1BB681F
:1049580023F08003BB603B685B68BA681343BB60A5
:104968007B681B68BA689A607B68012283F83D20DF
:104978007B68002283F83C20002318461437BD4684
:1049880080BC7047002C0140003401400004004006
:1049980000080040000C004080B485B000AF78608B
:1049A80039600023FB607B6893F83C30012B01D110
:1049B80002233DE07B68012283F83C20FB6823F05A
:1049C800FF023B68DB681343FB60FB6823F440721B
:1049D8003B689B681343FB60FB6823F480623B6879
:1049E8005B681343FB60FB6823F400623B681B6849
:1049F8001343FB60FB6823F480523B681B69134335
:104A0800FB60FB6823F400523B685B691343FB605F
:104A1800FB6823F480423B68DB691343FB607B68D7
:104A28001B68FA685A647B68002283F83C200023DC
:104A380018461437BD4680BC704780B582B000AFB9
:104A480078607B68002B01D1012342E07B6893F8F2
:104A58004130DBB2002B06D17B68002283F840206E
:104A68007868FCF78FFF7B68242283F841207B68F5
:104A78001B68DA687B681B6822F40052DA60786881
:104A880000F072F97B681B681A697B681B6822F45E
:104A980090421A617B681B685A697B681B6822F020
:104AA8002A025A617B681B68DA687B681B6842F4D3
:104AB8000052DA607B6800225A647B68202283F8FF
:104AC80041207B68202283F842207B6800225A63B9
:104AD800002318460837BD4680BD80B58AB002AFAE
:104AE800F860B9603B601346FB8000237B61FB687C
:104AF80093F84130DBB2202B75D1BB68002B02D074
:104B0800FB88002B01D101236EE0FB6800225A6468
:104B1800FB68212283F84120FDF7E2F87861FB6801
:104B2800FA889A84FB68FA88DA84FB689B68B3F58C
:104B3800805F08D1FB681B69002B04D10023FB614F
:104B4800BB68BB6103E0BB68FB610023BB612EE06F
:104B58003B6800937B6900228021F86800F048F8E0
:104B68000346002B05D0FB68202283F8412003234D
:104B78003AE0FB69002B0BD1BB691B881A46FB681E
:104B88001B68C2F308025A60BB690233BB6107E0C5
:104B9800FB691A78FB681B685A60FB690133FB6183
:104BA800FB68DB8C9BB2013B9AB2FB68DA84FB683A
:104BB800DB8C9BB2002BCBD13B6800937B69002236
:104BC8004021F86800F014F80346002B05D0FB6874
:104BD800202283F84120032306E0FB68202283F883
:104BE8004120002300E0022318462037BD4680BD3F
:104BF80080B586B000AFF860B9603B601346FB71C2
:104C08003BE03B6AB3F1FF3F37D0FDF769F8024656
:104C18003B68D31A3A6A9A4202D33B6A002B01D105
:104C280003233AE0FB681B68DB6803F00403002BEE
:104C380023D0BB68802B20D0BB68402B1DD0FB68DD
:104C48001B681B6803F00803082B16D100237B613F
:104C5800FB681B681B687B61FB681B685B687B6182
:104C68007B69F86800F01DF8FB6808225A64FB6845
:104C7800002283F8402001230FE0FB681B681A68B4
:104C8800BB681340BA689A420CBF01230023DBB209
:104C98001A46FB799A42B4D0002318461837BD4605
:104CA80080BD80B495B000AF78607B681B680C331A
:104CB8007B637B6B53E8003F3B633B6B23F4907350
:104CC800FB647B681B680C33FA6C3A64FB63F96B12
:104CD8003A6C41E80023BB63BB6B002BE5D17B68D2
:104CE8001B6814333B623B6A53E8003FFB61FB6976
:104CF80023F00103BB647B681B681433BA6CFA6247
:104D0800BB62B96AFA6A41E800237B627B6A002BBE
:104D1800E5D17B681B6B012B19D17B681B680C33B1
:104D2800FB60FB6853E8003FBB60BB6823F01003DF
:104D38007B647B681B680C337A6CBA617B61796928
:104D4800BA6941E800233B613B69002BE5D17B68E8
:104D5800202283F842207B6800221A6300BF543760
:104D6800BD4680BC7047000080B584B000AF786055
:104D78007B681B681B6923F440517B68DA687B6891
:104D88001B680A431A617B689A687B681B691A4327
:104D98007B685B691343BB607B681B68DB6823F433
:104DA800B05323F00C037A681268B9680B43D360D8
:104DB8007B681B685B6923F440717B689A697B6830
:104DC8001B680A435A617B681B682C4A934203D1CB
:104DD800FEF7E0FEF86002E0FEF7C8FEF860FA6849
:104DE80013469B0013449A001A447B685B689B0037
:104DF800B2FBF3F3224AA2FB03235B091901FA6809
:104E080013469B0013449A001A447B685B689B0016
:104E1800B2FBF3F21A4BA3FB02035B09642000FB0D
:104E280003F3D31A1B013233154AA2FB03235B0990
:104E380003F0F0031944FA6813469B0013449A00E0
:104E48001A447B685B689B00B2FBF3F20C4BA3FB34
:104E580002035B09642000FB03F3D31A1B013233FE
:104E6800074AA2FB03235B0903F00F027B681B6858
:104E78000A449A6000BF1037BD4680BD0038014023
:104E88001F85EB51002B2DE9F0471F46BBBF03F1EF
:104E980000431F4600232D2388B01446129A109D04
:104EA8001370149BDDF84CA023F02008B8F1460FCE
:104EB80005D0B8F1450F00D10135022300E00323E6
:104EC80007AA049206AACDE902A2CDE90035224636
:104ED8003B4600F055FFB8F1470F064602D1119B3B
:104EE800DB0722D5B8F1460F06EB050910D1337858
:104EF800302B0AD10022002320463946FBF7BCFD9F
:104F080018B9C5F10105CAF80050DAF8003099441B
:104F18000022002320463946FBF7AEFD08B1CDF844
:104F28001C903022079B4B4507D33046079B159AA8
:104F38009B1B136008B0BDE8F087591C07911A70D5
:104F4800F0E70346F7B5002903F8022BB6BF2D2278
:104F58002B224942092942702ADD0DF10702174622
:104F68000A2691FBF6F5944606FB151430340CF826
:104F7800014C0C46632C294602F1FF32F1DC30313A
:104F8800ACF1020402F8011C2246411CBA420AD3C1
:104F98000DF10902A2EB0C02BC4288BF00221344A7
:104FA800181A03B0F0BD12F8015B01F8015FEDE7D4
:104FB800302330318370C170031DF1E72DE9F04FC4
:104FC80091B00C46DDF8688016461F46054600F08D
:104FD800C7FD036818460993FBF722F900230E93CF
:104FE800D8F800300A90073323F0070303F10802CA
:104FF80094F81890D4F800B0C8F80020D3E900A8B5
:1050080052464346C4E9122328F000430B934FF05D
:10501800FF3250469C4B0B99FBF760FD70BB4FF07D
:10502800FF325046984B0B99FBF73AFD30BB0022F4
:10503800002350464146FBF729FD10B12D2384F883
:105048004330924A924BB9F1470F94BF9046984625
:1050580003234FF0000A23612BF004032360334637
:105068002146284600970FAA00F0D6F9013040F0F3
:1050780090804FF0FF3011B0BDE8F08F52464346A4
:1050880050464146FBF72AFD48B1B8F1000FB8BFBA
:105098002D23804AB8BF84F843307F4BD3E7636839
:1050A80009F0DF015A1C42D10623636000220692F0
:1050B8000EAACDE904920DAA4BF4806303920DF178
:1050C8003302CDE9013223606368524600932846D3
:1050D80043460B91FFF7D6FE0B99804647290D9959
:1050E80008D1C81C02DB6368994240DDA9F10209B6
:1050F8005FFA89F9B9F1650F1FD84A46013904F1F9
:1051080050000D91FFF71DFF0E9A82461318012AD1
:10511800236102DC2268D20701D5013323619DF89F
:105128003330002B9BD02D2384F8433097E7472951
:10513800BCD1002BBAD10123B7E7B9F1660F18D15A
:10514800002963680BDD216113B92268D00702D5F5
:1051580001330B4423614FF0000AA165DFE713B95F
:105168002268D20701D50233F4E70123F2E74FF0B2
:1051780067090E9B994205DB23682161D807EAD5A8
:105188004B1CE7E70029CCBF0122C1F102021344FE
:10519800E0E723685A0507D4236942463146284682
:1051A800B84701302BD164E7B9F1650F40F2DD80D3
:1051B800D4E9120100220023FBF75EFC002833D05B
:1051C800012331462846354AB84701303FF451AFEC
:1051D800DDE90D239A4202DB2368D8070FD5DDE904
:1051E800092331462846B84701303FF442AF4FF013
:1051F800000804F11A090E9B013B434509DC2368AA
:105208009B0700F10481E0680F9B9842B8BF1846DD
:1052180031E701234A4631462846B84701303FF472
:1052280028AF08F10108E6E70D9B002B38DC0123C5
:1052380031462846194AB84701303FF41AAFDDE92C
:105248000D32134302D12368D907D8D5DDE90923E4
:1052580031462846B84701303FF40BAF4FF00009FC
:1052680004F11A0A0D9B5B424B4501DC0E9B94E747
:105278000123524631462846B84701303FF4F9AE7B
:1052880009F10109EEE700BFFFFFEF7F4E7A000842
:10529800527A0008567A00085A7A00085E7A00089E
:1052A8000E9AA36D9A42A8BF1A46002A914637DC87
:1052B8004FF0000B29EAE97904F11A02D4F858A052
:1052C800AAEB09035B4533DCDDE90D239A423BDB9E
:1052D8002368DA0738D4DDE90D32A2EB0309A2EB23
:1052E8000A029145A8BF9146B9F1000F34DC4FF08E
:1052F800000829EAE97904F11A0ADDE90D239B1A65
:10530800A3EB090343457FF77AAF012352463146A1
:105318002846B84701303FF4ACAE08F10108ECE785
:105328001346314642462846B8470130C0D1A0E668
:105338000123314628460B92B84701303FF499AE15
:105348000B9A0BF1010BB9E73146DDE90923284631
:10535800B8470130BFD18CE64B463146284608EBAA
:105368000A02B8470130C2D183E60E9A012A01DC4D
:10537800DB0739D50123424631462846B847013074
:105388003FF477AEDDE9092331462846B8470130B6
:105398003FF46FAED4E9120100220023DDF8389003
:1053A800FBF76AFBD8B909F1FF3308F1010231466E
:1053B8002846B84701300ED15BE601234A463146FC
:1053C8002846B84701303FF454AE08F101080E9B57
:1053D800013B4345F1DC534604F15002DEE64FF051
:1053E800000804F11A09F2E701234246DFE7012326
:1053F8004A4631462846B84701303FF43AAE08F1EC
:105408000108E3680F995B1A4345F0DCFBE64FF0AF
:10541800000804F11909F4E72DE9F0471646994602
:105428008A680B6907469342B8BF1346336091F800
:1054380043200C46DDF820800AB10133336023682D
:10544800990642BF336802333360256815F00605B4
:1054580006D104F1190AE36832689B1AAB422BDCC7
:1054680094F84320131E226818BF0123920630D4F3
:105478004946384604F14302C047013023D0236827
:10548800226903F00603042B14BF002533684FF08C
:10549800000608BFE56804F11A0408BFED1A54F8BD
:1054A800123C08BF25EAE5759342C4BF9B1AED1864
:1054B800B5421AD1002008E0012352464946384631
:1054C800C047013003D14FF0FF30BDE8F087013508
:1054D800C1E73020E11881F843005A1C94F84510C0
:1054E8002244023382F84310C2E701232246494688
:1054F8003846C0470130E6D00136D9E72DE9FF47E5
:105508000F7E9146782F80460C469A460C9D01F1F5
:10551800430207D8622F0AD8002F00F0D580582FF1
:1055280000F0C18004F1420584F842703AE0A7F126
:105538006303152BF6D801A151F823F09D550008F7
:10554800B15500082D5500082D5500082D550008A7
:105558002D550008B15500082D5500082D55000897
:105568002D5500082D550008B7560008DD550008D0
:10557800715600082D5500082D550008D956000809
:105588002D550008DD5500082D5500082D5500083B
:10559800795600082B681A1D1B682A6004F1420519
:1055A80084F842300123A0E020682B68070603F145
:1055B8000401296001D51E6803E04606FBD5B3F94E
:1055C8000060002E03DA2D23764284F843300A2344
:1055D800594812E02B682068191D2960050601D575
:1055E8001E6802E04106FBD51E886F2F0CBF0823FA
:1055F8000A235148002184F843106568002DA8BF8C
:105608002168A560A4BF21F0040121600EB9002D16
:105618004BD01546B6FBF3F103FB1167C75D05F8E0
:10562800017D3746BB420E46F4D9082B0BD12368BF
:10563800DE0708D5236961689942DEBF302305F883
:10564800013C05F1FF35521B22614B46214640467D
:10565800CDF800A003AAFFF7DFFE01304AD14FF0D2
:10566800FF3004B0BDE8F087236843F020032360CF
:105678007827324884F84570236829681F0651F84E
:10568800046B02D45F0648BFB6B2DF0748BF43F0D9
:105698002003296048BF23601EB9236823F0200334
:1056A80023601023A6E72448E4E71546BDE72B68E6
:1056B8002668181D6169286035061B6801D51960C0
:1056C80002E07006FBD51980002315462361BCE76C
:1056D8002B6800211A1D2A601D686268284600F0A0
:1056E800B6FA08B1401B606063682361002384F840
:1056F8004330AAE72A46494640462369D047013045
:10570800ADD023689B0713D4E068039B9842B8BFC9
:105718001846A6E70123324649464046D04701309D
:105728009DD00135E36803995B1AAB42F2DCEBE7E5
:10573800002504F11906F5E7607A0008717A000877
:10574800002310B50446C0E90033C0E90433836080
:1057580081814366C2818361194608225C3000F06A
:10576800F7F90D4B246263620C4BA3620C4BE362A6
:105778000C4B23630C4B9C4206D003F16802944205
:1057880002D0D0339C4205D104F15800BDE8104046
:1057980000F05ABA10BD00BFA9590008CB5900083B
:1057A800035A0008275A000810030020024A034938
:1057B800034800F069B800BF0C000020C17500085C
:1057C8001800002041680C4B10B59942044601D0DE
:1057D80001F0F2FEA168094B994202D0204601F07F
:1057E800EBFEE168064B994204D02046BDE8104024
:1057F80001F0E2BE10BD00BF1003002078030020B6
:10580800E003002010B50B4B0B4C0C4A20461A60E5
:1058180004210022FFF794FF04F168000122092106
:10582800FFF78EFF04F1D0000222BDE810401221DC
:10583800FFF786BF4804002010030020B557000872
:10584800014800F002BA00BF51040020014800F0EE
:10585800FDB900BF5104002010B50446FFF7F0FF62
:10586800236A1BB1BDE81040FFF7F0BF044B236269
:10587800044B1B68002BF5D1FFF7C4FFF2E700BF0C
:10588800CD570008480400202DE9F843074688460C
:1058980014460026D4E90195B9F1010905D5246813
:1058A800002CF7D13046BDE8F883AB89012B07D926
:1058B800B5F90E30013303D029463846C0470643B0
:1058C8006835E9E70FB407B5064904AB086853F82B
:1058D800042B8168019301F0D3FC03B05DF804EB5D
:1058E80004B0704764000020036A70B505460E4690
:1058F80084680BB9FFF7B0FF636EDB0705D4A38993
:10590800980502D4A06D00F0A0F9A389190713D552
:1059180023698BB1013EA36816F8011F013BA36000
:10592800E9B9002B2EDA22460A21284600F07BF836
:10593800013007D00A2507E02146284600F0B0F8D4
:105948000028E7D04FF0FF35636EDA0705D4A38946
:105958009B0502D4A06D00F079F9284670BD002B94
:1059680004DAA2699A4206DC0A2904D023685A1C80
:1059780022601970CFE72246284600F054F801301B
:10598800C9D1DFE70A2523685A1C22601D70DBE7AE
:10599800024B01461868FFF7A7BF00BF640000204C
:1059A80010B50C46B1F90E1000F000F90028ABBF95
:1059B800636DA3891B1823F48053ACBF6365A3816F
:1059C80010BD2DE9F0411F468B890546DB050C46C5
:1059D800164605D502230022B1F90E1000F0D4F8BE
:1059E800A389324623F48053A38128463B46B4F961
:1059F8000E10BDE8F04100F0EBB810B50C46B1F957
:105A08000E1000F0C1F8431CA38915BF606523F48C
:105A1800805343F48053A38118BFA38110BDB1F90B
:105A28000E1000F0A1B8F8B50E461446054618B198
:105A3800036A0BB9FFF710FFA369A360A3891A07CC
:105A480025D523691BB323682269F6B2981A6369BE
:105A58003746834204DC2146284601F0ADFDE0B913
:105A6800A368013BA36023685A1C22601E70626908
:105A7800431C9A4204D0A389DB0706D50A2E04D119
:105A88002146284601F098FD38B93846F8BD214628
:105A9800284600F005F80028D5D04FF0FF37F4E786
:105AA80038B52A4B054618680C4618B1036A0BB975
:105AB800FFF7D2FEA389B4F90C20180722D4D9061F
:105AC80007D409232B6042F040034FF0FF30A38135
